{
  "contractName": "ArgOrder",
  "abi": [
    {
      "constant": false,
      "inputs": [
        {
          "name": "x",
          "type": "uint256"
        },
        {
          "name": "y",
          "type": "uint256"
        }
      ],
      "name": "f",
      "outputs": [
        {
          "name": "",
          "type": "uint256"
        },
        {
          "name": "",
          "type": "uint256"
        }
      ],
      "payable": false,
      "stateMutability": "nonpayable",
      "type": "function"
    }
  ],
  "bytecode": "0x60606040523415600e57600080fd5b60ac8061001c6000396000f300606060405260043610603e5763ffffffff7c010000000000000000000000000000000000000000000000000000000060003504166313d1aa2e81146043575b600080fd5b3415604d57600080fd5b60596004356024356071565b60405191825260208201526040908101905180910390f35b600282026003820292509290505600a165627a7a72305820867ecf00db0fb6f88a34553bd79f1c0cf5159471f0b7e812dfb65cf197074f340029",
  "source": "contract ArgOrder {\n\tfunction f (uint x, uint y) returns (uint, uint) {\n\t\treturn (x*2, y*3);\n\t}\n}\n",
  "sourcePath": "/home/imm/datalogi/decompiler/source/tests/contracts/argorder.sol",
  "compiler": {
    "name": "solc",
    "version": "0.4.18+commit.9cf6e910.Emscripten.clang"
  },
  "schemaVersion": "1.0.1",
  "updatedAt": "2018-06-05T15:25:58.657Z"
}