{
  "contractName": "Array",
  "abi": [
    {
      "constant": false,
      "inputs": [
        {
          "name": "offset",
          "type": "uint256"
        }
      ],
      "name": "get_num",
      "outputs": [
        {
          "name": "",
          "type": "uint256"
        }
      ],
      "payable": false,
      "stateMutability": "nonpayable",
      "type": "function"
    },
    {
      "constant": false,
      "inputs": [
        {
          "name": "num",
          "type": "uint256"
        }
      ],
      "name": "add_num",
      "outputs": [],
      "payable": false,
      "stateMutability": "nonpayable",
      "type": "function"
    },
    {
      "inputs": [],
      "payable": false,
      "stateMutability": "nonpayable",
      "type": "constructor"
    }
  ],
  "bytecode": "0x6060604052341561000f57600080fd5b600a60405180591061001e5750595b90808252806020026020018201604052506000908051610042929160200190610048565b506100b0565b828054828255906000526020600020908101928215610083579160200282015b82811115610083578251825591602001919060010190610068565b5061008f929150610093565b5090565b6100ad91905b8082111561008f5760008155600101610099565b90565b60fc806100be6000396000f30060606040526004361060485763ffffffff7c010000000000000000000000000000000000000000000000000000000060003504166376febb7e8114604d578063cf0d6774146072575b600080fd5b3415605757600080fd5b60606004356087565b60405190815260200160405180910390f35b3415607c57600080fd5b608560043560a9565b005b60008082815481101515609657fe5b9060005260206000209001549050919050565b6001805480820190915560008054839290811060c157fe5b600091825260209091200155505600a165627a7a723058204206c1c331d246ab503b3d92ce58de99a431af4172fc2a9787997c183ceee3e60029",
  "source": "contract Array {\n\tuint[] nums;\n\tuint offset;\n\n\tfunction Array() {\n\t\tnums = new uint[](10);\n\t}\n\n\tfunction add_num(uint num) {\n\t\tnums[offset++] = num;\n\t}\n\n\tfunction get_num(uint offset) external returns (uint) {\n\t\treturn nums[offset];\n\t}\n\n}\n",
  "sourcePath": "/home/imm/datalogi/decompiler/source/tests/contracts/array.sol",
  "compiler": {
    "name": "solc",
    "version": "0.4.18+commit.9cf6e910.Emscripten.clang"
  },
  "schemaVersion": "1.0.1",
  "updatedAt": "2018-06-05T15:25:58.658Z"
}