{
  "contractName": "BlackjackTipJar",
  "abi": [
    {
      "constant": true,
      "inputs": [
        {
          "name": "",
          "type": "address"
        }
      ],
      "name": "beneficiaries",
      "outputs": [
        {
          "name": "",
          "type": "address"
        }
      ],
      "payable": false,
      "stateMutability": "view",
      "type": "function"
    },
    {
      "constant": true,
      "inputs": [],
      "name": "overflow_upper",
      "outputs": [
        {
          "name": "",
          "type": "uint256"
        }
      ],
      "payable": false,
      "stateMutability": "view",
      "type": "function"
    },
    {
      "constant": false,
      "inputs": [
        {
          "name": "beneficiary",
          "type": "address"
        }
      ],
      "name": "setBeneficiary",
      "outputs": [],
      "payable": false,
      "stateMutability": "nonpayable",
      "type": "function"
    },
    {
      "constant": false,
      "inputs": [
        {
          "name": "cut",
          "type": "uint8"
        }
      ],
      "name": "setDealerCut",
      "outputs": [],
      "payable": false,
      "stateMutability": "nonpayable",
      "type": "function"
    },
    {
      "constant": false,
      "inputs": [],
      "name": "kill",
      "outputs": [],
      "payable": false,
      "stateMutability": "nonpayable",
      "type": "function"
    },
    {
      "constant": true,
      "inputs": [],
      "name": "dealer_cut",
      "outputs": [
        {
          "name": "",
          "type": "uint8"
        }
      ],
      "payable": false,
      "stateMutability": "view",
      "type": "function"
    },
    {
      "constant": true,
      "inputs": [],
      "name": "deployedOn",
      "outputs": [
        {
          "name": "",
          "type": "uint256"
        }
      ],
      "payable": false,
      "stateMutability": "view",
      "type": "function"
    },
    {
      "constant": true,
      "inputs": [],
      "name": "pitboss",
      "outputs": [
        {
          "name": "",
          "type": "address"
        }
      ],
      "payable": false,
      "stateMutability": "view",
      "type": "function"
    },
    {
      "constant": false,
      "inputs": [
        {
          "name": "upper",
          "type": "uint256"
        },
        {
          "name": "lower",
          "type": "uint256"
        }
      ],
      "name": "setOverflowBounds",
      "outputs": [],
      "payable": false,
      "stateMutability": "nonpayable",
      "type": "function"
    },
    {
      "constant": false,
      "inputs": [
        {
          "name": "winner",
          "type": "address"
        },
        {
          "name": "amount",
          "type": "uint256"
        }
      ],
      "name": "cashout",
      "outputs": [],
      "payable": false,
      "stateMutability": "nonpayable",
      "type": "function"
    },
    {
      "constant": true,
      "inputs": [],
      "name": "overflow_lower",
      "outputs": [
        {
          "name": "",
          "type": "uint256"
        }
      ],
      "payable": false,
      "stateMutability": "view",
      "type": "function"
    },
    {
      "constant": true,
      "inputs": [
        {
          "name": "",
          "type": "address"
        }
      ],
      "name": "bankrolls",
      "outputs": [
        {
          "name": "",
          "type": "uint256"
        }
      ],
      "payable": false,
      "stateMutability": "view",
      "type": "function"
    },
    {
      "constant": false,
      "inputs": [
        {
          "name": "dealer",
          "type": "address"
        }
      ],
      "name": "deposit",
      "outputs": [],
      "payable": true,
      "stateMutability": "payable",
      "type": "function"
    },
    {
      "inputs": [],
      "payable": true,
      "stateMutability": "payable",
      "type": "constructor"
    },
    {
      "payable": true,
      "stateMutability": "payable",
      "type": "fallback"
    },
    {
      "anonymous": false,
      "inputs": [
        {
          "indexed": true,
          "name": "_dealer",
          "type": "address"
        },
        {
          "indexed": true,
          "name": "_from",
          "type": "address"
        },
        {
          "indexed": false,
          "name": "_value",
          "type": "uint256"
        }
      ],
      "name": "Deposit",
      "type": "event"
    },
    {
      "anonymous": false,
      "inputs": [
        {
          "indexed": true,
          "name": "_dealer",
          "type": "address"
        },
        {
          "indexed": true,
          "name": "_to",
          "type": "address"
        },
        {
          "indexed": false,
          "name": "_value",
          "type": "uint256"
        }
      ],
      "name": "Cashout",
      "type": "event"
    },
    {
      "anonymous": false,
      "inputs": [
        {
          "indexed": true,
          "name": "_dealer",
          "type": "address"
        },
        {
          "indexed": false,
          "name": "_value",
          "type": "uint256"
        }
      ],
      "name": "Overflow",
      "type": "event"
    }
  ],
  "bytecode": "0x606060409081526002805460ff1916605f1790556703782dace9d90000600355670214e8348c4f000060045560008054600160a060020a03338116600160a060020a031990921691909117808355436001551681526005602052203490556106898061006c6000396000f3006060604052600436106100c45763ffffffff7c01000000000000000000000000000000000000000000000000000000006000350416630156773981146101245780630b6d30171461015f5780631c31f710146101845780633b13f8a6146101a557806341c0e1b5146101be578063625fcce7146101d157806373fc8420146101fa578063a026348c1461020d578063a0c3bc6814610220578063b7b172b314610239578063b7b3a56e1461025b578063b9f9cc9b1461026e578063f340fa011461028d575b60008054600160a060020a039081168252600560205260408083208054349081019091559254338316939216917f5548c837ab068cf56a2c2479df0882a4922fd203edb7517321831d95078c5f62915190815260200160405180910390a3005b341561012f57600080fd5b610143600160a060020a03600435166102a1565b604051600160a060020a03909116815260200160405180910390f35b341561016a57600080fd5b6101726102bc565b60405190815260200160405180910390f35b341561018f57600080fd5b6101a3600160a060020a03600435166102c2565b005b34156101b057600080fd5b6101a360ff6004351661030a565b34156101c957600080fd5b6101a361035e565b34156101dc57600080fd5b6101e4610387565b60405160ff909116815260200160405180910390f35b341561020557600080fd5b610172610390565b341561021857600080fd5b610143610396565b341561022b57600080fd5b6101a36004356024356103a5565b341561024457600080fd5b6101a3600160a060020a03600435166024356103e5565b341561026657600080fd5b6101726105e8565b341561027957600080fd5b610172600160a060020a03600435166105ee565b6101a3600160a060020a0360043516610600565b600660205260009081526040902054600160a060020a031681565b60035481565b600160a060020a0333811660009081526006602052604090208054919092167fffffffffffffffffffffffff0000000000000000000000000000000000000000909116179055565b60005433600160a060020a0390811691161461032557600080fd5b60648160ff161115801561033d575060018160ff1610155b151561034857600080fd5b6002805460ff191660ff92909216919091179055565b60005433600160a060020a0390811691161461037957600080fd5b600054600160a060020a0316ff5b60025460ff1681565b60015481565b600054600160a060020a031681565b60005433600160a060020a039081169116146103c057600080fd5b6000811180156103cf57508082115b15156103da57600080fd5b600391909155600455565b600160a060020a03331660009081526005602052604081205490829080808484111561040f578493505b600160a060020a0333811660009081526005602052604090819020805487900390559088169085156108fc0290869051600060405180830381858888f19350505050151561045c57600080fd5b86600160a060020a031633600160a060020a03167fe9ff3fa323c4b413ef75cda9211a44bd6b80aa62d316cffeb266927fcd5f3bb68660405190815260200160405180910390a3600160a060020a0333166000908152600560205260409020546003549095508511156105df57600454600160a060020a0333811660008181526005602052604081208054948a03948590039055549296508695509116146105445760025460649060ff1684026000549190049450600160a060020a031684840380156108fc0290604051600060405180830381858888f19350505050151561054457600080fd5b505033600160a060020a0381811660009081526006602052604081205490911690811115610570578091505b600160a060020a03821684156108fc0285604051600060405180830381858888f1935050505015156105a157600080fd5b33600160a060020a03167f99a1d8aba44cdfa6454f833e494b7075d13c2055f0765ddbd68a18385a0ed8c58560405190815260200160405180910390a25b50505050505050565b60045481565b60056020526000908152604090205481565b600160a060020a038082166000818152600560205260409081902080543490810190915533909316927f5548c837ab068cf56a2c2479df0882a4922fd203edb7517321831d95078c5f62915190815260200160405180910390a3505600a165627a7a72305820075d1eefc148a28c86a468d463151d62e38d014b1a104d2005e2f246bb5486ea0029",
  "source": "// https://etherscan.io/address/0x2610a8d6602d7744174181348104dafc2ad94b28#code\n\ncontract BlackjackTipJar {\n\n    address public pitboss;\n    uint256 public deployedOn;\n\n    uint8 public dealer_cut = 95; // percent\n    uint256 public overflow_upper = 0.25 ether;\n    uint256 public overflow_lower = 0.15 ether;\n\n    mapping(address => uint256) public bankrolls;\n    mapping(address => address) public beneficiaries;\n    \n    event Deposit(address indexed _dealer, address indexed _from, uint256 _value);\n    event Cashout(address indexed _dealer, address indexed _to, uint256 _value);\n    event Overflow(address indexed _dealer, uint256 _value);\n\n    modifier auth() {\n      require(msg.sender == pitboss);\n      _;\n    }\n\n    function BlackjackTipJar() public payable {\n      pitboss = msg.sender;\n      deployedOn = block.number;\n      bankrolls[pitboss] = msg.value;\n    }\n\n    function () public payable {\n      bankrolls[pitboss] += msg.value;\n      Deposit(pitboss, msg.sender, msg.value);\n    }\n\n\n    // To be called by players\n    function deposit(address dealer) public payable {\n      bankrolls[dealer] = bankrolls[dealer] + msg.value;\n      Deposit(dealer, msg.sender, msg.value);\n    }\n\n\n    // To be called by dealers\n    function cashout(address winner, uint256 amount) public {\n\n      uint256 dealerBankroll = bankrolls[msg.sender];\n      uint256 value = amount;\n      if (value > dealerBankroll) {\n        value = dealerBankroll;\n      }\n\n      bankrolls[msg.sender] -= value;\n      winner.transfer(value);\n      Cashout(msg.sender, winner, value);\n\n      // Has our cup runneth over? Let us collect our profits\n      dealerBankroll = bankrolls[msg.sender];\n      if (dealerBankroll > overflow_upper) {\n\n        uint256 overflow_amt = dealerBankroll - overflow_lower;\n        bankrolls[msg.sender] -= overflow_amt;\n\n        value = overflow_amt;\n        if (msg.sender != pitboss) {\n          value = overflow_amt * dealer_cut / 100;\n          pitboss.transfer(overflow_amt - value);\n        }\n\n        address beneficiary = msg.sender;\n        address sender_beneficiary = beneficiaries[msg.sender];\n        if (sender_beneficiary > 0) { beneficiary = sender_beneficiary; }\n\n        beneficiary.transfer(value);\n        Overflow(msg.sender, value);\n\n      }\n    }\n\n    // To be called by dealers\n    function setBeneficiary(address beneficiary) public {\n      beneficiaries[msg.sender] = beneficiary;\n    }\n\n    // To be called by the pitboss\n    function setDealerCut(uint8 cut) public auth {\n      require(cut <= 100 && cut >= 1);\n      dealer_cut = cut;\n    }\n\n    // To be called by the pitboss\n    function setOverflowBounds(uint256 upper, uint256 lower) public auth {\n      require(lower > 0 && upper > lower);\n      overflow_upper = upper;\n      overflow_lower = lower;\n    }\n\n    function kill() public auth {\n      selfdestruct(pitboss);\n    }\n\n}\n",
  "sourcePath": "/home/imm/datalogi/decompiler/source/tests/contracts/blackjacktipjar.sol",
  "compiler": {
    "name": "solc",
    "version": "0.4.18+commit.9cf6e910.Emscripten.clang"
  },
  "schemaVersion": "1.0.1",
  "updatedAt": "2018-06-05T15:25:58.658Z"
}