{
  "contractName": "Bytes",
  "abi": [
    {
      "constant": false,
      "inputs": [
        {
          "name": "index",
          "type": "uint256"
        }
      ],
      "name": "get_data",
      "outputs": [
        {
          "name": "",
          "type": "bytes1"
        }
      ],
      "payable": false,
      "stateMutability": "nonpayable",
      "type": "function"
    },
    {
      "constant": false,
      "inputs": [
        {
          "name": "index",
          "type": "uint256"
        },
        {
          "name": "value",
          "type": "bytes1"
        }
      ],
      "name": "set_data",
      "outputs": [],
      "payable": false,
      "stateMutability": "nonpayable",
      "type": "function"
    }
  ],
  "bytecode": "0x6060604052341561000f57600080fd5b6101ec8061001e6000396000f30060606040526004361061004b5763ffffffff7c01000000000000000000000000000000000000000000000000000000006000350416630c39209981146100505780632703922c1461009b575b600080fd5b341561005b57600080fd5b6100666004356100d8565b6040517fff00000000000000000000000000000000000000000000000000000000000000909116815260200160405180910390f35b34156100a657600080fd5b6100d66004357fff0000000000000000000000000000000000000000000000000000000000000060243516610144565b005b6000808281546001816001161561010002031660029004811015156100f957fe5b8154600116156101185790600052602060002090602091828204019190065b90547f0100000000000000000000000000000000000000000000000000000000000000911a0292915050565b80600083815460018160011615610100020316600290048110151561016557fe5b8154600116156101845790600052602060002090602091828204019190065b601f036101000a81548160ff021916907f01000000000000000000000000000000000000000000000000000000000000008404021790555050505600a165627a7a723058209641952933bdfe6085135b96e83f8fddcfb7c1d451b4693d2b24859c4296947c0029",
  "source": "contract Bytes {\n\tbytes data;\n\n\tfunction set_data(uint index, byte value) {\n\t\tdata[index] = value;\n\t}\n\n\tfunction get_data(uint index) returns (byte) {\n\t\treturn data[index];\n\t}\n\n}\n",
  "sourcePath": "/home/imm/datalogi/decompiler/source/tests/contracts/bytes.sol",
  "compiler": {
    "name": "solc",
    "version": "0.4.18+commit.9cf6e910.Emscripten.clang"
  },
  "schemaVersion": "1.0.1",
  "updatedAt": "2018-06-05T15:25:58.659Z"
}