{
  "contractName": "Endless",
  "abi": [
    {
      "constant": false,
      "inputs": [
        {
          "name": "ii",
          "type": "int256"
        }
      ],
      "name": "foo",
      "outputs": [
        {
          "name": "",
          "type": "int256"
        }
      ],
      "payable": false,
      "stateMutability": "nonpayable",
      "type": "function"
    }
  ],
  "bytecode": "0x6060604052341561000f57600080fd5b6101028061001e6000396000f300606060405260043610603e5763ffffffff7c01000000000000000000000000000000000000000000000000000000006000350416634c970b2f81146043575b600080fd5b3415604d57600080fd5b60566004356068565b60405190815260200160405180910390f35b6000815b600302600501600281059050826011141560875760220160c3565b8260331415609f5761013281800101915060990160d0565b826066141560b357828160040202915060d0565b826077141560bf5760c3565b606c565b6101218382010191506088015b509190505600a165627a7a723058204057f8d23f5142ebec100dab8aac3d9bdcdcfdd3c08b8690dda89632dc120f200029",
  "source": "contract Endless {\n\n\tfunction foo (int ii) external returns (int) {\n\t\tint i = ii;\n\t\twhile (true) {\n\t\t\ti = i*3 + 5;\n\t\t\ti /= 2;\n\t\t\tif (ii == 0x11) {\n\t\t\t\ti += 0x22;\n\t\t\t\tbreak;\n\t\t\t}\n\n\t\t\tif (ii == 0x33) {\n\t\t\t\ti += 0x44;\n\t\t\t\ti += 0x55;\n\t\t\t\treturn i + i;\n\t\t\t}\n\n\t\t\tif (ii == 0x66) {\n\t\t\t\treturn i*4*ii;\n\t\t\t}\n\n\t\t\tif (ii == 0x77) {\n\t\t\t\tbreak;\n\t\t\t}\n\t\t}\n\n\t\ti += 0x88;\n\t\treturn i + ii + 0x99;\n\t}\n\n}\n",
  "sourcePath": "/home/imm/datalogi/decompiler/source/tests/contracts/endless.sol",
  "compiler": {
    "name": "solc",
    "version": "0.4.18+commit.9cf6e910.Emscripten.clang"
  },
  "schemaVersion": "1.0.1",
  "updatedAt": "2018-06-05T15:25:58.659Z"
}