{
  "contractName": "Exchange",
  "abi": [
    {
      "constant": false,
      "inputs": [
        {
          "name": "assertion",
          "type": "bool"
        }
      ],
      "name": "assert",
      "outputs": [],
      "payable": false,
      "stateMutability": "nonpayable",
      "type": "function"
    },
    {
      "constant": false,
      "inputs": [
        {
          "name": "newOwner",
          "type": "address"
        }
      ],
      "name": "setOwner",
      "outputs": [],
      "payable": false,
      "stateMutability": "nonpayable",
      "type": "function"
    },
    {
      "constant": false,
      "inputs": [
        {
          "name": "token",
          "type": "address"
        },
        {
          "name": "amount",
          "type": "uint256"
        },
        {
          "name": "user",
          "type": "address"
        },
        {
          "name": "nonce",
          "type": "uint256"
        },
        {
          "name": "v",
          "type": "uint8"
        },
        {
          "name": "r",
          "type": "bytes32"
        },
        {
          "name": "s",
          "type": "bytes32"
        },
        {
          "name": "feeWithdrawal",
          "type": "uint256"
        }
      ],
      "name": "adminWithdraw",
      "outputs": [
        {
          "name": "success",
          "type": "bool"
        }
      ],
      "payable": false,
      "stateMutability": "nonpayable",
      "type": "function"
    },
    {
      "constant": true,
      "inputs": [
        {
          "name": "",
          "type": "address"
        }
      ],
      "name": "lastActiveTransaction",
      "outputs": [
        {
          "name": "",
          "type": "uint256"
        }
      ],
      "payable": false,
      "stateMutability": "view",
      "type": "function"
    },
    {
      "constant": false,
      "inputs": [
        {
          "name": "token",
          "type": "address"
        },
        {
          "name": "amount",
          "type": "uint256"
        }
      ],
      "name": "depositToken",
      "outputs": [],
      "payable": false,
      "stateMutability": "nonpayable",
      "type": "function"
    },
    {
      "constant": true,
      "inputs": [
        {
          "name": "",
          "type": "bytes32"
        }
      ],
      "name": "withdrawn",
      "outputs": [
        {
          "name": "",
          "type": "bool"
        }
      ],
      "payable": false,
      "stateMutability": "view",
      "type": "function"
    },
    {
      "constant": true,
      "inputs": [
        {
          "name": "",
          "type": "address"
        }
      ],
      "name": "admins",
      "outputs": [
        {
          "name": "",
          "type": "bool"
        }
      ],
      "payable": false,
      "stateMutability": "view",
      "type": "function"
    },
    {
      "constant": false,
      "inputs": [
        {
          "name": "admin",
          "type": "address"
        },
        {
          "name": "isAdmin",
          "type": "bool"
        }
      ],
      "name": "setAdmin",
      "outputs": [],
      "payable": false,
      "stateMutability": "nonpayable",
      "type": "function"
    },
    {
      "constant": true,
      "inputs": [
        {
          "name": "",
          "type": "address"
        },
        {
          "name": "",
          "type": "address"
        }
      ],
      "name": "tokens",
      "outputs": [
        {
          "name": "",
          "type": "uint256"
        }
      ],
      "payable": false,
      "stateMutability": "view",
      "type": "function"
    },
    {
      "constant": true,
      "inputs": [],
      "name": "feeAccount",
      "outputs": [
        {
          "name": "",
          "type": "address"
        }
      ],
      "payable": false,
      "stateMutability": "view",
      "type": "function"
    },
    {
      "constant": true,
      "inputs": [
        {
          "name": "",
          "type": "address"
        }
      ],
      "name": "invalidOrder",
      "outputs": [
        {
          "name": "",
          "type": "uint256"
        }
      ],
      "payable": false,
      "stateMutability": "view",
      "type": "function"
    },
    {
      "constant": false,
      "inputs": [],
      "name": "getOwner",
      "outputs": [
        {
          "name": "out",
          "type": "address"
        }
      ],
      "payable": false,
      "stateMutability": "nonpayable",
      "type": "function"
    },
    {
      "constant": true,
      "inputs": [],
      "name": "owner",
      "outputs": [
        {
          "name": "",
          "type": "address"
        }
      ],
      "payable": false,
      "stateMutability": "view",
      "type": "function"
    },
    {
      "constant": false,
      "inputs": [
        {
          "name": "a",
          "type": "uint256"
        },
        {
          "name": "b",
          "type": "uint256"
        }
      ],
      "name": "safeSub",
      "outputs": [
        {
          "name": "",
          "type": "uint256"
        }
      ],
      "payable": false,
      "stateMutability": "nonpayable",
      "type": "function"
    },
    {
      "constant": false,
      "inputs": [
        {
          "name": "user",
          "type": "address"
        },
        {
          "name": "nonce",
          "type": "uint256"
        }
      ],
      "name": "invalidateOrdersBefore",
      "outputs": [],
      "payable": false,
      "stateMutability": "nonpayable",
      "type": "function"
    },
    {
      "constant": false,
      "inputs": [
        {
          "name": "a",
          "type": "uint256"
        },
        {
          "name": "b",
          "type": "uint256"
        }
      ],
      "name": "safeMul",
      "outputs": [
        {
          "name": "",
          "type": "uint256"
        }
      ],
      "payable": false,
      "stateMutability": "nonpayable",
      "type": "function"
    },
    {
      "constant": false,
      "inputs": [],
      "name": "deposit",
      "outputs": [],
      "payable": true,
      "stateMutability": "payable",
      "type": "function"
    },
    {
      "constant": true,
      "inputs": [
        {
          "name": "",
          "type": "bytes32"
        }
      ],
      "name": "traded",
      "outputs": [
        {
          "name": "",
          "type": "bool"
        }
      ],
      "payable": false,
      "stateMutability": "view",
      "type": "function"
    },
    {
      "constant": false,
      "inputs": [
        {
          "name": "expiry",
          "type": "uint256"
        }
      ],
      "name": "setInactivityReleasePeriod",
      "outputs": [
        {
          "name": "success",
          "type": "bool"
        }
      ],
      "payable": false,
      "stateMutability": "nonpayable",
      "type": "function"
    },
    {
      "constant": false,
      "inputs": [
        {
          "name": "a",
          "type": "uint256"
        },
        {
          "name": "b",
          "type": "uint256"
        }
      ],
      "name": "safeAdd",
      "outputs": [
        {
          "name": "",
          "type": "uint256"
        }
      ],
      "payable": false,
      "stateMutability": "nonpayable",
      "type": "function"
    },
    {
      "constant": false,
      "inputs": [
        {
          "name": "tradeValues",
          "type": "uint256[8]"
        },
        {
          "name": "tradeAddresses",
          "type": "address[4]"
        },
        {
          "name": "v",
          "type": "uint8[2]"
        },
        {
          "name": "rs",
          "type": "bytes32[4]"
        }
      ],
      "name": "trade",
      "outputs": [
        {
          "name": "success",
          "type": "bool"
        }
      ],
      "payable": false,
      "stateMutability": "nonpayable",
      "type": "function"
    },
    {
      "constant": true,
      "inputs": [],
      "name": "inactivityReleasePeriod",
      "outputs": [
        {
          "name": "",
          "type": "uint256"
        }
      ],
      "payable": false,
      "stateMutability": "view",
      "type": "function"
    },
    {
      "constant": false,
      "inputs": [
        {
          "name": "token",
          "type": "address"
        },
        {
          "name": "amount",
          "type": "uint256"
        }
      ],
      "name": "withdraw",
      "outputs": [
        {
          "name": "success",
          "type": "bool"
        }
      ],
      "payable": false,
      "stateMutability": "nonpayable",
      "type": "function"
    },
    {
      "constant": true,
      "inputs": [
        {
          "name": "",
          "type": "bytes32"
        }
      ],
      "name": "orderFills",
      "outputs": [
        {
          "name": "",
          "type": "uint256"
        }
      ],
      "payable": false,
      "stateMutability": "view",
      "type": "function"
    },
    {
      "constant": true,
      "inputs": [
        {
          "name": "token",
          "type": "address"
        },
        {
          "name": "user",
          "type": "address"
        }
      ],
      "name": "balanceOf",
      "outputs": [
        {
          "name": "",
          "type": "uint256"
        }
      ],
      "payable": false,
      "stateMutability": "view",
      "type": "function"
    },
    {
      "inputs": [
        {
          "name": "feeAccount_",
          "type": "address"
        }
      ],
      "payable": false,
      "stateMutability": "nonpayable",
      "type": "constructor"
    },
    {
      "payable": false,
      "stateMutability": "nonpayable",
      "type": "fallback"
    },
    {
      "anonymous": false,
      "inputs": [
        {
          "indexed": true,
          "name": "previousOwner",
          "type": "address"
        },
        {
          "indexed": true,
          "name": "newOwner",
          "type": "address"
        }
      ],
      "name": "SetOwner",
      "type": "event"
    },
    {
      "anonymous": false,
      "inputs": [
        {
          "indexed": false,
          "name": "tokenBuy",
          "type": "address"
        },
        {
          "indexed": false,
          "name": "amountBuy",
          "type": "uint256"
        },
        {
          "indexed": false,
          "name": "tokenSell",
          "type": "address"
        },
        {
          "indexed": false,
          "name": "amountSell",
          "type": "uint256"
        },
        {
          "indexed": false,
          "name": "expires",
          "type": "uint256"
        },
        {
          "indexed": false,
          "name": "nonce",
          "type": "uint256"
        },
        {
          "indexed": false,
          "name": "user",
          "type": "address"
        },
        {
          "indexed": false,
          "name": "v",
          "type": "uint8"
        },
        {
          "indexed": false,
          "name": "r",
          "type": "bytes32"
        },
        {
          "indexed": false,
          "name": "s",
          "type": "bytes32"
        }
      ],
      "name": "Order",
      "type": "event"
    },
    {
      "anonymous": false,
      "inputs": [
        {
          "indexed": false,
          "name": "tokenBuy",
          "type": "address"
        },
        {
          "indexed": false,
          "name": "amountBuy",
          "type": "uint256"
        },
        {
          "indexed": false,
          "name": "tokenSell",
          "type": "address"
        },
        {
          "indexed": false,
          "name": "amountSell",
          "type": "uint256"
        },
        {
          "indexed": false,
          "name": "expires",
          "type": "uint256"
        },
        {
          "indexed": false,
          "name": "nonce",
          "type": "uint256"
        },
        {
          "indexed": false,
          "name": "user",
          "type": "address"
        },
        {
          "indexed": false,
          "name": "v",
          "type": "uint8"
        },
        {
          "indexed": false,
          "name": "r",
          "type": "bytes32"
        },
        {
          "indexed": false,
          "name": "s",
          "type": "bytes32"
        }
      ],
      "name": "Cancel",
      "type": "event"
    },
    {
      "anonymous": false,
      "inputs": [
        {
          "indexed": false,
          "name": "tokenBuy",
          "type": "address"
        },
        {
          "indexed": false,
          "name": "amountBuy",
          "type": "uint256"
        },
        {
          "indexed": false,
          "name": "tokenSell",
          "type": "address"
        },
        {
          "indexed": false,
          "name": "amountSell",
          "type": "uint256"
        },
        {
          "indexed": false,
          "name": "get",
          "type": "address"
        },
        {
          "indexed": false,
          "name": "give",
          "type": "address"
        }
      ],
      "name": "Trade",
      "type": "event"
    },
    {
      "anonymous": false,
      "inputs": [
        {
          "indexed": false,
          "name": "token",
          "type": "address"
        },
        {
          "indexed": false,
          "name": "user",
          "type": "address"
        },
        {
          "indexed": false,
          "name": "amount",
          "type": "uint256"
        },
        {
          "indexed": false,
          "name": "balance",
          "type": "uint256"
        }
      ],
      "name": "Deposit",
      "type": "event"
    },
    {
      "anonymous": false,
      "inputs": [
        {
          "indexed": false,
          "name": "token",
          "type": "address"
        },
        {
          "indexed": false,
          "name": "user",
          "type": "address"
        },
        {
          "indexed": false,
          "name": "amount",
          "type": "uint256"
        },
        {
          "indexed": false,
          "name": "balance",
          "type": "uint256"
        }
      ],
      "name": "Withdraw",
      "type": "event"
    }
  ],
  "bytecode": "0x6060604052341561000f57600080fd5b604051602080611a458339810160405280805160008054600160a060020a03338116600160a060020a031992831617909255600680549290931691161790555050620186a06007556119df806100666000396000f3006060604052600436106101485763ffffffff7c01000000000000000000000000000000000000000000000000000000006000350416630674763c811461015857806313af4035146101725780632295115b14610191578063254dcfe2146101e0578063338b5dea146102115780633823d66c14610233578063429b62e5146102495780634b0bddd214610268578063508493bc1461028c57806365e17c9d146102b157806383dbb27b146102e0578063893d20e8146102ff5780638da5cb5b14610312578063a293d1e814610325578063b12de5591461033e578063d05c78da14610360578063d0e30db014610379578063d581332314610381578063dd93c74a14610397578063e6cb9013146103ad578063ef343588146103c6578063f31174ee1461047e578063f3fef3a314610491578063f7213db6146104b3578063f7888aec146104c9575b341561015357600080fd5b600080fd5b341561016357600080fd5b61017060043515156104ee565b005b341561017d57600080fd5b610170600160a060020a03600435166104fd565b341561019c57600080fd5b6101cc600160a060020a03600435811690602435906044351660643560ff6084351660a43560c43560e43561058e565b604051901515815260200160405180910390f35b34156101eb57600080fd5b6101ff600160a060020a03600435166109c9565b60405190815260200160405180910390f35b341561021c57600080fd5b610170600160a060020a03600435166024356109db565b341561023e57600080fd5b6101cc600435610b6a565b341561025457600080fd5b6101cc600160a060020a0360043516610b7f565b341561027357600080fd5b610170600160a060020a03600435166024351515610b94565b341561029757600080fd5b6101ff600160a060020a0360043581169060243516610bda565b34156102bc57600080fd5b6102c4610bf7565b604051600160a060020a03909116815260200160405180910390f35b34156102eb57600080fd5b6101ff600160a060020a0360043516610c06565b341561030a57600080fd5b6102c4610c18565b341561031d57600080fd5b6102c4610c27565b341561033057600080fd5b6101ff600435602435610c36565b341561034957600080fd5b610170600160a060020a0360043516602435610c4a565b341561036b57600080fd5b6101ff600435602435610ccd565b610170610cf8565b341561038c57600080fd5b6101cc600435610de3565b34156103a257600080fd5b6101cc600435610df8565b34156103b857600080fd5b6101ff600435602435610e54565b34156103d157600080fd5b6101cc600461010481600861010060405190810160405291908282610100808284378201915050505050919080608001906004806020026040519081016040529190828260808082843782019150505050509190806040019060028060200260405190810160405280929190826002602002808284378201915050505050919080608001906004806020026040519081016040529190828260808082843750939550610e70945050505050565b341561048957600080fd5b6101ff611747565b341561049c57600080fd5b6101cc600160a060020a036004351660243561174d565b34156104be57600080fd5b6101ff600435611976565b34156104d457600080fd5b6101ff600160a060020a0360043581169060243516611988565b8015156104fa57600080fd5b50565b6000546105189033600160a060020a039081169116146104ee565b600054600160a060020a0380831691167fcbf985117192c8f614a58aaf97226bb80a754772f5f6edf06f87c675f2e6c66360405160405180910390a3600080547fffffffffffffffffffffffff000000000000000000000000000000000000000016600160a060020a0392909216919091179055565b60008054819033600160a060020a039081169116148015906105c95750600160a060020a03331660009081526003602052604090205460ff16155b156105d357600080fd5b308a8a8a8a6040516c01000000000000000000000000600160a060020a039687168102825294861685026014820152602881019390935293169091026048820152605c810191909152607c0160405190819003902060008181526009602052604090205490915060ff161561064757600080fd5b60008181526009602052604090819020805460ff19166001908117909155600160a060020a038a16918390517f19457468657265756d205369676e6564204d6573736167653a0a3332000000008152601c810191909152603c0160405180910390208888886040516000815260200160405260006040516020015260405193845260ff90921660208085019190915260408085019290925260608401929092526080909201915160208103908084039060008661646e5a03f1151561070b57600080fd5b505060206040510351600160a060020a03161461072757600080fd5b66b1a2bc2ec500008311156107415766b1a2bc2ec5000092505b600160a060020a03808b166000908152600260209081526040808320938c16835292905220548990101561077457600080fd5b600160a060020a03808b166000908152600260209081526040808320938c16835292905220546107a4908a610c36565b600160a060020a038b811660009081526002602090815260408083208d8516845290915280822093909355600654909116815220546107ff90670de0b6b3a76400006107f0868d610ccd565b8115156107f957fe5b04610e54565b600160a060020a03808c16600090815260026020908152604080832060065490941683529290522055670de0b6b3a764000061083d8482038b610ccd565b81151561084657fe5b049850600160a060020a038a16151561088f57600160a060020a03881689156108fc028a604051600060405180830381858888f19350505050151561088a57600080fd5b61092b565b89600160a060020a031663a9059cbb898b6000604051602001526040517c010000000000000000000000000000000000000000000000000000000063ffffffff8516028152600160a060020a0390921660048301526024820152604401602060405180830381600087803b151561090557600080fd5b6102c65a03f1151561091657600080fd5b50505060405180519050151561092b57600080fd5b600160a060020a038089166000818152600460209081526040808320439055938e1682526002815283822092825291909152819020547ff341246adaac6f497bc2a656f546ab9e182111d630394f0c57c710a59a2cb567918c918b918d919051600160a060020a0394851681529290931660208301526040808301919091526060820192909252608001905180910390a15098975050505050505050565b60046020526000908152604090205481565b600160a060020a0380831660009081526002602090815260408083203390941683529290522054610a0c9082610e54565b600160a060020a0380841660008181526002602090815260408083203395861684528252808320959095556004905283812043905590926323b872dd9291309186919051602001526040517c010000000000000000000000000000000000000000000000000000000063ffffffff8616028152600160a060020a0393841660048201529190921660248201526044810191909152606401602060405180830381600087803b1515610abc57600080fd5b6102c65a03f11515610acd57600080fd5b505050604051805190501515610ae257600080fd5b600160a060020a03808316600090815260026020908152604080832033948516845290915290819020547fdcbc1c05240f31ff3ad067ef1ee35ce4997762752e3a095284754544f4c709d79285929091859151600160a060020a0394851681529290931660208301526040808301919091526060820192909252608001905180910390a15050565b60096020526000908152604090205460ff1681565b60036020526000908152604090205460ff1681565b600054610baf9033600160a060020a039081169116146104ee565b600160a060020a03919091166000908152600360205260409020805460ff1916911515919091179055565b600260209081526000928352604080842090915290825290205481565b600654600160a060020a031681565b60016020526000908152604090205481565b600054600160a060020a031690565b600054600160a060020a031681565b6000610c44838311156104ee565b50900390565b60005433600160a060020a03908116911614801590610c825750600160a060020a03331660009081526003602052604090205460ff16155b15610c8c57600080fd5b600160a060020a038216600090815260016020526040902054811015610cb157600080fd5b600160a060020a03909116600090815260016020526040902055565b6000828202610cf1841580610cec5750838583811515610ce957fe5b04145b6104ee565b9392505050565b33600160a060020a031660009081527fac33ff75c19e70fe83507db0d683fd3465c996598dc972688b7ace676c89077b6020526040902054610d3a9034610e54565b33600160a060020a03811660008181527fac33ff75c19e70fe83507db0d683fd3465c996598dc972688b7ace676c89077b60208181526040808420968755600482528084204390559383525292547fdcbc1c05240f31ff3ad067ef1ee35ce4997762752e3a095284754544f4c709d793929134919051600160a060020a0394851681529290931660208301526040808301919091526060820192909252608001905180910390a1565b60086020526000908152604090205460ff1681565b6000805433600160a060020a03908116911614801590610e315750600160a060020a03331660009081526003602052604090205460ff16155b15610e3b57600080fd5b620f4240821115610e4b57600080fd5b50600755600190565b6000828201610cf1848210801590610cec5750838210156104ee565b600080548190819033600160a060020a03908116911614801590610ead5750600160a060020a03331660009081526003602052604090205460ff16155b15610eb757600080fd5b6060870151600160006040890151600160a060020a0316600160a060020a03168152602001908152602001600020541115610ef157600080fd5b3086518851602089015160208b015160408c015160608d015160408d01516040516c01000000000000000000000000600160a060020a03998a168102825297891688026014820152602881019690965293871686026048860152605c850192909252607c840152609c8301529092160260bc82015260d00160405190819003902091506040860151600160a060020a03166001836040517f19457468657265756d205369676e6564204d6573736167653a0a3332000000008152601c810191909152603c016040519081900390208751875160208901516040516000815260200160405260006040516020015260405193845260ff90921660208085019190915260408085019290925260608401929092526080909201915160208103908084039060008661646e5a03f1151561102757600080fd5b505060206040510351600160a060020a03161461104357600080fd5b816080880151606088015160a08a01516040519384526020840192909252600160a060020a03166c010000000000000000000000000260408084019190915260548301919091526074909101905190819003902090506060860151600160a060020a03166001826040517f19457468657265756d205369676e6564204d6573736167653a0a3332000000008152601c810191909152603c016040519081900390206020880151604088015160608901516040516000815260200160405260006040516020015260405193845260ff90921660208085019190915260408085019290925260608401929092526080909201915160208103908084039060008661646e5a03f1151561115257600080fd5b505060206040510351600160a060020a03161461116e57600080fd5b60008181526008602052604090205460ff161561118a57600080fd5b6000818152600860205260409020805460ff1916600117905567016345785d8a0000876006602002015111156111c95767016345785d8a000060c08801525b67016345785d8a000060e088015111156111ec5767016345785d8a000060e08801525b865160008381526005602052604090205461120f908960045b6020020151610e54565b111561121a57600080fd5b6080870151600260008851600160a060020a0316815260208101919091526040016000908120906060890151600160a060020a0316600160a060020a0316815260200190815260200160002054101561127257600080fd5b865161128a60208901518960045b6020020151610ccd565b81151561129357fe5b04600260006020890151600160a060020a0316815260208101919091526040908101600090812091890151600160a060020a0316600160a060020a031681526020019081526020016000205410156112ea57600080fd5b611338600260008851600160a060020a0316815260208101919091526040016000908120906060890151600160a060020a031681526020810191909152604001600020546080890151610c36565b600260008851600160a060020a0316815260208101919091526040016000908120906060890151600160a060020a0316815260208101919091526040016000908120919091556113e7906002908851600160a060020a0316815260208101919091526040908101600090812091890151600160a060020a03168152602081019190915260400160002054670de0b6b3a76400006107f060808b015160c08c0151670de0b6b3a764000003610ccd565b600260008851600160a060020a0316815260208101919091526040908101600090812091890151600160a060020a03168152602081019190915260400160009081209190915561147c906002908851600160a060020a0390811682526020808301939093526040918201600090812060065490921681529252902054670de0b6b3a76400006107f060808b01518b6006611280565b600260008851600160a060020a0390811682526020808301939093526040918201600090812060065490921681529083529081209290925561151a91600291890151600160a060020a0316815260208101919091526040908101600090812091890151600160a060020a03168152602081019190915260400160002054885161150b60208b01518b6004611280565b81151561151457fe5b04610c36565b600260006020890151600160a060020a0316815260208101919091526040908101600090812091890151600160a060020a031681526020808201929092526040016000908120929092556115ec91600291890151600160a060020a0316815260208101919091526040016000908120906060890151600160a060020a03168152602081019190915260400160002054670de0b6b3a764000089516115d96115d160e08d0151670de0b6b3a7640000038d6001611280565b8c6004611280565b8115156115e257fe5b048115156107f957fe5b600260006020890151600160a060020a0316815260208101919091526040016000908120906060890151600160a060020a0316815260208082019290925260400160009081209290925561168b91600291890151600160a060020a0390811682526020808301939093526040918201600090812060065490921681529252902054670de0b6b3a764000089516115d96115d160e08d01518d6001611280565b600260006020890151600160a060020a0390811682526020808301939093526040918201600090812060065490921681529083528181209390935584835260059091529020546116dd90886004611205565b60008381526005602052604080822092909255439160049190890151600160a060020a03168152602081019190915260400160009081209190915543906004906060890151600160a060020a03168152602081019190915260400160002055509095945050505050565b60075481565b600754600160a060020a033316600090815260046020526040812054909190611777904390610c36565b101561178257600080fd5b600160a060020a0380841660009081526002602090815260408083203390941683529290522054829010156117b657600080fd5b600160a060020a03808416600090815260026020908152604080832033909416835292905220546117e79083610c36565b600160a060020a0380851660008181526002602090815260408083203390951683529390529190912091909155151561185057600160a060020a03331682156108fc0283604051600060405180830381858888f19350505050151561184b57600080fd5b6118ec565b82600160a060020a031663a9059cbb33846000604051602001526040517c010000000000000000000000000000000000000000000000000000000063ffffffff8516028152600160a060020a0390921660048301526024820152604401602060405180830381600087803b15156118c657600080fd5b6102c65a03f115156118d757600080fd5b5050506040518051905015156118ec57600080fd5b600160a060020a03808416600090815260026020908152604080832033948516845290915290819020547ff341246adaac6f497bc2a656f546ab9e182111d630394f0c57c710a59a2cb5679286929091869151600160a060020a0394851681529290931660208301526040808301919091526060820192909252608001905180910390a192915050565b60056020526000908152604090205481565b600160a060020a039182166000908152600260209081526040808320939094168252919091522054905600a165627a7a72305820514cfc525be930f2d198112d5ced6a0a6b6a27b2836846e51a1765d2384b5fe30029",
  "source": "// https://etherscan.io/address/0x2a0c0dbecc7e4d658f48e01e3fa353f44050c208#code\npragma solidity ^0.4.16;\n\ncontract Token {\n    bytes32 public standard;\n    bytes32 public name;\n    bytes32 public symbol;\n    uint256 public totalSupply;\n    uint8 public decimals;\n    bool public allowTransactions;\n    mapping (address => uint256) public balanceOf;\n    mapping (address => mapping (address => uint256)) public allowance;\n    function transfer(address _to, uint256 _value) returns (bool success);\n    function approveAndCall(address _spender, uint256 _value, bytes _extraData) returns (bool success);\n    function approve(address _spender, uint256 _value) returns (bool success);\n    function transferFrom(address _from, address _to, uint256 _value) returns (bool success);\n}\n\ncontract Exchange {\n  function assert(bool assertion) {\n    if (!assertion) throw;\n  }\n  function safeMul(uint a, uint b) returns (uint) {\n    uint c = a * b;\n    assert(a == 0 || c / a == b);\n    return c;\n  }\n\n  function safeSub(uint a, uint b) returns (uint) {\n    assert(b <= a);\n    return a - b;\n  }\n\n  function safeAdd(uint a, uint b) returns (uint) {\n    uint c = a + b;\n    assert(c>=a && c>=b);\n    return c;\n  }\n  address public owner;\n  mapping (address => uint256) public invalidOrder;\n  event SetOwner(address indexed previousOwner, address indexed newOwner);\n  modifier onlyOwner {\n    assert(msg.sender == owner);\n    _;\n  }\n  function setOwner(address newOwner) onlyOwner {\n    SetOwner(owner, newOwner);\n    owner = newOwner;\n  }\n  function getOwner() returns (address out) {\n    return owner;\n  }\n  function invalidateOrdersBefore(address user, uint256 nonce) onlyAdmin {\n    if (nonce < invalidOrder[user]) throw;\n    invalidOrder[user] = nonce;\n  }\n\n  mapping (address => mapping (address => uint256)) public tokens; //mapping of token addresses to mapping of account balances\n\n  mapping (address => bool) public admins;\n  mapping (address => uint256) public lastActiveTransaction;\n  mapping (bytes32 => uint256) public orderFills;\n  address public feeAccount;\n  uint256 public inactivityReleasePeriod;\n  mapping (bytes32 => bool) public traded;\n  mapping (bytes32 => bool) public withdrawn;\n  event Order(address tokenBuy, uint256 amountBuy, address tokenSell, uint256 amountSell, uint256 expires, uint256 nonce, address user, uint8 v, bytes32 r, bytes32 s);\n  event Cancel(address tokenBuy, uint256 amountBuy, address tokenSell, uint256 amountSell, uint256 expires, uint256 nonce, address user, uint8 v, bytes32 r, bytes32 s);\n  event Trade(address tokenBuy, uint256 amountBuy, address tokenSell, uint256 amountSell, address get, address give);\n  event Deposit(address token, address user, uint256 amount, uint256 balance);\n  event Withdraw(address token, address user, uint256 amount, uint256 balance);\n\n  function setInactivityReleasePeriod(uint256 expiry) onlyAdmin returns (bool success) {\n    if (expiry > 1000000) throw;\n    inactivityReleasePeriod = expiry;\n    return true;\n  }\n\n  function Exchange(address feeAccount_) {\n    owner = msg.sender;\n    feeAccount = feeAccount_;\n    inactivityReleasePeriod = 100000;\n  }\n\n  function setAdmin(address admin, bool isAdmin) onlyOwner {\n    admins[admin] = isAdmin;\n  }\n\n  modifier onlyAdmin {\n    if (msg.sender != owner && !admins[msg.sender]) throw;\n    _;\n  }\n\n  function() external {\n    throw;\n  }\n\n  function depositToken(address token, uint256 amount) {\n    tokens[token][msg.sender] = safeAdd(tokens[token][msg.sender], amount);\n    lastActiveTransaction[msg.sender] = block.number;\n    if (!Token(token).transferFrom(msg.sender, this, amount)) throw;\n    Deposit(token, msg.sender, amount, tokens[token][msg.sender]);\n  }\n\n  function deposit() payable {\n    tokens[address(0)][msg.sender] = safeAdd(tokens[address(0)][msg.sender], msg.value);\n    lastActiveTransaction[msg.sender] = block.number;\n    Deposit(address(0), msg.sender, msg.value, tokens[address(0)][msg.sender]);\n  }\n\n  function withdraw(address token, uint256 amount) returns (bool success) {\n    if (safeSub(block.number, lastActiveTransaction[msg.sender]) < inactivityReleasePeriod) throw;\n    if (tokens[token][msg.sender] < amount) throw;\n    tokens[token][msg.sender] = safeSub(tokens[token][msg.sender], amount);\n    if (token == address(0)) {\n      if (!msg.sender.send(amount)) throw;\n    } else {\n      if (!Token(token).transfer(msg.sender, amount)) throw;\n    }\n    Withdraw(token, msg.sender, amount, tokens[token][msg.sender]);\n  }\n\n  function adminWithdraw(address token, uint256 amount, address user, uint256 nonce, uint8 v, bytes32 r, bytes32 s, uint256 feeWithdrawal) onlyAdmin returns (bool success) {\n    bytes32 hash = keccak256(this, token, amount, user, nonce);\n    if (withdrawn[hash]) throw;\n    withdrawn[hash] = true;\n    if (ecrecover(keccak256(\"\\x19Ethereum Signed Message:\\n32\", hash), v, r, s) != user) throw;\n    if (feeWithdrawal > 50 finney) feeWithdrawal = 50 finney;\n    if (tokens[token][user] < amount) throw;\n    tokens[token][user] = safeSub(tokens[token][user], amount);\n    tokens[token][feeAccount] = safeAdd(tokens[token][feeAccount], safeMul(feeWithdrawal, amount) / 1 ether);\n    amount = safeMul((1 ether - feeWithdrawal), amount) / 1 ether;\n    if (token == address(0)) {\n      if (!user.send(amount)) throw;\n    } else {\n      if (!Token(token).transfer(user, amount)) throw;\n    }\n    lastActiveTransaction[user] = block.number;\n    Withdraw(token, user, amount, tokens[token][user]);\n  }\n\n  function balanceOf(address token, address user) constant returns (uint256) {\n    return tokens[token][user];\n  }\n\n  function trade(uint256[8] tradeValues, address[4] tradeAddresses, uint8[2] v, bytes32[4] rs) onlyAdmin returns (bool success) {\n    /* amount is in amountBuy terms */\n    /* tradeValues\n       [0] amountBuy\n       [1] amountSell\n       [2] expires\n       [3] nonce\n       [4] amount\n       [5] tradeNonce\n       [6] feeMake\n       [7] feeTake\n     tradeAddressses\n       [0] tokenBuy\n       [1] tokenSell\n       [2] maker\n       [3] taker\n     */\n    if (invalidOrder[tradeAddresses[2]] > tradeValues[3]) throw;\n    bytes32 orderHash = keccak256(this, tradeAddresses[0], tradeValues[0], tradeAddresses[1], tradeValues[1], tradeValues[2], tradeValues[3], tradeAddresses[2]);\n    if (ecrecover(keccak256(\"\\x19Ethereum Signed Message:\\n32\", orderHash), v[0], rs[0], rs[1]) != tradeAddresses[2]) throw;\n    bytes32 tradeHash = keccak256(orderHash, tradeValues[4], tradeAddresses[3], tradeValues[5]); \n    if (ecrecover(keccak256(\"\\x19Ethereum Signed Message:\\n32\", tradeHash), v[1], rs[2], rs[3]) != tradeAddresses[3]) throw;\n    if (traded[tradeHash]) throw;\n    traded[tradeHash] = true;\n    if (tradeValues[6] > 100 finney) tradeValues[6] = 100 finney;\n    if (tradeValues[7] > 100 finney) tradeValues[7] = 100 finney;\n    if (safeAdd(orderFills[orderHash], tradeValues[4]) > tradeValues[0]) throw;\n    if (tokens[tradeAddresses[0]][tradeAddresses[3]] < tradeValues[4]) throw;\n    if (tokens[tradeAddresses[1]][tradeAddresses[2]] < (safeMul(tradeValues[1], tradeValues[4]) / tradeValues[0])) throw;\n    tokens[tradeAddresses[0]][tradeAddresses[3]] = safeSub(tokens[tradeAddresses[0]][tradeAddresses[3]], tradeValues[4]);\n    tokens[tradeAddresses[0]][tradeAddresses[2]] = safeAdd(tokens[tradeAddresses[0]][tradeAddresses[2]], safeMul(tradeValues[4], ((1 ether) - tradeValues[6])) / (1 ether));\n    tokens[tradeAddresses[0]][feeAccount] = safeAdd(tokens[tradeAddresses[0]][feeAccount], safeMul(tradeValues[4], tradeValues[6]) / (1 ether));\n    tokens[tradeAddresses[1]][tradeAddresses[2]] = safeSub(tokens[tradeAddresses[1]][tradeAddresses[2]], safeMul(tradeValues[1], tradeValues[4]) / tradeValues[0]);\n    tokens[tradeAddresses[1]][tradeAddresses[3]] = safeAdd(tokens[tradeAddresses[1]][tradeAddresses[3]], safeMul(safeMul(((1 ether) - tradeValues[7]), tradeValues[1]), tradeValues[4]) / tradeValues[0] / (1 ether));\n    tokens[tradeAddresses[1]][feeAccount] = safeAdd(tokens[tradeAddresses[1]][feeAccount], safeMul(safeMul(tradeValues[7], tradeValues[1]), tradeValues[4]) / tradeValues[0] / (1 ether));\n    orderFills[orderHash] = safeAdd(orderFills[orderHash], tradeValues[4]);\n    lastActiveTransaction[tradeAddresses[2]] = block.number;\n    lastActiveTransaction[tradeAddresses[3]] = block.number;\n  }\n}\n",
  "sourcePath": "/home/imm/datalogi/decompiler/source/tests/contracts/exchange.sol",
  "compiler": {
    "name": "solc",
    "version": "0.4.18+commit.9cf6e910.Emscripten.clang"
  },
  "schemaVersion": "1.0.1",
  "updatedAt": "2018-06-05T15:25:58.659Z"
}