{
  "contractName": "FourSimple",
  "abi": [
    {
      "constant": false,
      "inputs": [
        {
          "name": "x",
          "type": "int256"
        }
      ],
      "name": "d",
      "outputs": [
        {
          "name": "",
          "type": "int256"
        }
      ],
      "payable": false,
      "stateMutability": "nonpayable",
      "type": "function"
    },
    {
      "constant": false,
      "inputs": [],
      "name": "c",
      "outputs": [
        {
          "name": "",
          "type": "int256"
        },
        {
          "name": "",
          "type": "int256"
        }
      ],
      "payable": false,
      "stateMutability": "nonpayable",
      "type": "function"
    }
  ],
  "bytecode": "0x6060604052341561000f57600080fd5b6101258061001e6000396000f30060606040526004361060485763ffffffff7c01000000000000000000000000000000000000000000000000000000006000350416636482e6268114604d578063c3da42b8146072575b600080fd5b3415605757600080fd5b6060600435609a565b60405190815260200160405180910390f35b3415607c57600080fd5b608260b1565b60405191825260208201526040908101905180910390f35b600060a960a58360dc565b60e2565b90505b919050565b60008060228160be8260dc565b915060339050811560d35760d08260e2565b90505b90939092509050565b60110290565b60008082131560f25750600160ac565b50600060ac5600a165627a7a72305820523c5ee50703623a9195984f81071e69f69e7639156b562f4f46f0cad790971d0029",
  "source": "contract FourSimple {\n\t\n\tfunction a (int x) internal returns (int) {\n\t\tif (x > 0)\n\t\t\treturn 1;\n\t\telse\n\t\t\treturn 0;\n\t}\n\n\tfunction b (int x) internal returns (int) {\n\t\treturn 0x11*x;\n\t}\n\n\tfunction c () external returns (int, int) {\n\t\tint x = 0x22;\n\t\tx = b(x);\n\t\tint y = 0x33;\n\t\tif (x != 0) {\n\t\t\ty = a(x);\n\t\t}\n\n\t\treturn (x, y);\n\t}\n\n\tfunction d (int x) external returns (int) {\n\t\treturn a(b(x));\n\t}\n}\n",
  "sourcePath": "/home/imm/datalogi/decompiler/source/tests/contracts/foursimple.sol",
  "compiler": {
    "name": "solc",
    "version": "0.4.18+commit.9cf6e910.Emscripten.clang"
  },
  "schemaVersion": "1.0.1",
  "updatedAt": "2018-06-05T15:25:58.664Z"
}