{
  "contractName": "GT",
  "abi": [
    {
      "constant": false,
      "inputs": [
        {
          "name": "x",
          "type": "uint256"
        }
      ],
      "name": "f",
      "outputs": [
        {
          "name": "",
          "type": "uint256"
        }
      ],
      "payable": false,
      "stateMutability": "nonpayable",
      "type": "function"
    }
  ],
  "bytecode": "0x6060604052341561000f57600080fd5b60ad8061001d6000396000f300606060405260043610603e5763ffffffff7c0100000000000000000000000000000000000000000000000000000000600035041663b3de648b81146043575b600080fd5b3415604d57600080fd5b60566004356068565b60405190815260200160405180910390f35b60006011821115607957506044607c565b50805b9190505600a165627a7a72305820f9766d4fe414108eb4f6abda8c62f6670fddc8e2f8424c8afab9b2f48de72f230029",
  "source": "contract GT {\n\tfunction f (uint x) external returns (uint) {\n\t\tif (x > 0x11)\n\t\t\treturn 0x44;\n\t\treturn x;\n\t}\n}\n",
  "sourcePath": "/home/imm/datalogi/decompiler/source/tests/contracts/gt.sol",
  "compiler": {
    "name": "solc",
    "version": "0.4.18+commit.9cf6e910.Emscripten.clang"
  },
  "schemaVersion": "1.0.1",
  "updatedAt": "2018-06-05T15:25:58.664Z"
}