{
  "contractName": "Log",
  "abi": [
    {
      "constant": false,
      "inputs": [],
      "name": "f",
      "outputs": [],
      "payable": true,
      "stateMutability": "payable",
      "type": "function"
    }
  ],
  "bytecode": "0x60606040523415600e57600080fd5b60c98061001c6000396000f300606060405260043610603e5763ffffffff7c010000000000000000000000000000000000000000000000000000000060003504166326121ff081146043575b600080fd5b6049604b565b005b624200428073ffffffffffffffffffffffffffffffffffffffff33167f50cb9fe53daa9737b786ab3646f04d0150dc50ef4e75f59509d83667ad5adb203460405190815260200160405180910390a3505600a165627a7a72305820d7121be5147a4990d53470bc6dc2b13deadb70776ce2e0203486a8c1944468b20029",
  "source": "contract Log {\n    function f() public payable {\n        bytes32 _id = 0x420042;\n        log3(\n            bytes32(msg.value),\n            bytes32(0x50cb9fe53daa9737b786ab3646f04d0150dc50ef4e75f59509d83667ad5adb20),\n            bytes32(msg.sender),\n            _id\n        );\n    }\n}\n",
  "sourcePath": "/home/imm/datalogi/decompiler/source/tests/contracts/log.sol",
  "compiler": {
    "name": "solc",
    "version": "0.4.18+commit.9cf6e910.Emscripten.clang"
  },
  "schemaVersion": "1.0.1",
  "updatedAt": "2018-06-05T15:25:58.664Z"
}