{
  "contractName": "Mapping",
  "abi": [
    {
      "constant": false,
      "inputs": [
        {
          "name": "x",
          "type": "uint256"
        },
        {
          "name": "v",
          "type": "address"
        }
      ],
      "name": "set",
      "outputs": [],
      "payable": false,
      "stateMutability": "nonpayable",
      "type": "function"
    },
    {
      "constant": false,
      "inputs": [
        {
          "name": "x",
          "type": "uint256"
        }
      ],
      "name": "get",
      "outputs": [
        {
          "name": "",
          "type": "address"
        }
      ],
      "payable": false,
      "stateMutability": "nonpayable",
      "type": "function"
    }
  ],
  "bytecode": "0x6060604052341561000f57600080fd5b6101b48061001e6000396000f30060606040526004361061004b5763ffffffff7c01000000000000000000000000000000000000000000000000000000006000350416632f30c6f681146100505780639507d39a14610081575b600080fd5b341561005b57600080fd5b61007f60043573ffffffffffffffffffffffffffffffffffffffff602435166100c0565b005b341561008c57600080fd5b610097600435610126565b60405173ffffffffffffffffffffffffffffffffffffffff909116815260200160405180910390f35b600091825260208281526040808420805473ffffffffffffffffffffffffffffffffffffffff9094167fffffffffffffffffffffffff00000000000000000000000000000000000000009485168117909155600190925290922080549091169091179055565b6000606482101561015c575060008181526020819052604090205473ffffffffffffffffffffffffffffffffffffffff16610183565b5060008181526001602052604090205473ffffffffffffffffffffffffffffffffffffffff165b9190505600a165627a7a7230582043c80f5466e3f94a35ffa262d9f555756194111394db97a7c37edd6932088e700029",
  "source": "contract Mapping {\n\t\n\tmapping (uint => address) m;\n\tmapping (uint => address) n;\n\t\n\tfunction set(uint x, address v) external {\n\t\tn[x] = m[x] = v;\n\t}\n\n\tfunction get(uint x) external returns (address) {\n\t\tif (x < 100)\n\t\t\treturn m[x];\n\t\telse\n\t\t\treturn n[x];\n\t}\n}\n",
  "sourcePath": "/home/imm/datalogi/decompiler/source/tests/contracts/mapping.sol",
  "compiler": {
    "name": "solc",
    "version": "0.4.18+commit.9cf6e910.Emscripten.clang"
  },
  "schemaVersion": "1.0.1",
  "updatedAt": "2018-06-05T15:25:58.665Z"
}