{
  "contractName": "Multicall",
  "abi": [
    {
      "constant": false,
      "inputs": [
        {
          "name": "i",
          "type": "uint256"
        }
      ],
      "name": "f",
      "outputs": [
        {
          "name": "result",
          "type": "uint256"
        }
      ],
      "payable": false,
      "stateMutability": "nonpayable",
      "type": "function"
    },
    {
      "constant": false,
      "inputs": [
        {
          "name": "j",
          "type": "uint256"
        }
      ],
      "name": "h",
      "outputs": [
        {
          "name": "",
          "type": "uint256"
        }
      ],
      "payable": false,
      "stateMutability": "nonpayable",
      "type": "function"
    }
  ],
  "bytecode": "0x6060604052341561000f57600080fd5b6101268061001e6000396000f30060606040526004361060485763ffffffff7c0100000000000000000000000000000000000000000000000000000000600035041663b3de648b8114604d578063cb97492a146072575b600080fd5b3415605757600080fd5b60606004356085565b60405190815260200160405180910390f35b3415607c57600080fd5b606060043560c3565b600060918260010160f4565b01609c6002830160f4565b0160a76003830160f4565b0160b26004830160f4565b0160bd6005830160f4565b01919050565b6000600160ce8360f4565b60d58460f4565b60dc8560f4565b01010160ed60e9808560f4565b60f4565b0192915050565b600202905600a165627a7a72305820135ccbddd074c41dc33811569a21a4489af0a09d7d3275b363e9a8dfd61d9ac80029",
  "source": "/*\ndef g(x):\n    return x*2\n\n# 0xb3de648b\ndef f(i):\n    result = 0\n    result += g(i+1)\n    result += g(i+2)\n    result += g(i+3)\n    result += g(i+4)\n    result += g(i+5)\n    return result\n\n# 0xcb97492a\ndef h(j):\n    result = 1\n    result += g(j) + g(j) + g(j)\n    result += g(g(g(j)))\n    return result\n\n*/\ncontract Multicall {\n\t\n\tfunction g (uint x) internal returns (uint) {\n\t\treturn x*2;\n\t}\n\t\n\tfunction f (uint i) external returns (uint result) {\n\t\tresult += g(i+1);\n\t\tresult += g(i+2);\n\t\tresult += g(i+3);\n\t\tresult += g(i+4);\n\t\tresult += g(i+5);\n\t}\n\n\tfunction h (uint j) external returns (uint) {\n\t\tuint result = 1;\n\t\tresult += g(j) + g(j) + g(j);\n\t\tresult += g(g(g(j)));\n\t\treturn result;\n\t}\n\n\n}\n",
  "sourcePath": "/home/imm/datalogi/decompiler/source/tests/contracts/multicall.sol",
  "compiler": {
    "name": "solc",
    "version": "0.4.18+commit.9cf6e910.Emscripten.clang"
  },
  "schemaVersion": "1.0.1",
  "updatedAt": "2018-06-05T15:25:58.665Z"
}