{
  "contractName": "Multiargs",
  "abi": [
    {
      "constant": false,
      "inputs": [
        {
          "name": "x",
          "type": "uint256"
        },
        {
          "name": "y",
          "type": "uint256"
        },
        {
          "name": "z",
          "type": "uint256"
        }
      ],
      "name": "f",
      "outputs": [
        {
          "name": "",
          "type": "uint256"
        }
      ],
      "payable": false,
      "stateMutability": "nonpayable",
      "type": "function"
    }
  ],
  "bytecode": "0x60606040523415600e57600080fd5b60a38061001c6000396000f300606060405260043610603e5763ffffffff7c0100000000000000000000000000000000000000000000000000000000600035041663bf06dbf181146043575b600080fd5b3415604d57600080fd5b605c600435602435604435606e565b60405190815260200160405180910390f35b910202601102905600a165627a7a72305820fd8b64a5920383d99350fd68802efba1c405fc105eb4dff9a7ccae88f615759b0029",
  "source": "contract Multiargs {\n\tfunction f(uint x, uint y, uint z) external returns (uint) {\n\t\treturn x*y*z*0x11;\n\t}\n}\n\n",
  "sourcePath": "/home/imm/datalogi/decompiler/source/tests/contracts/multiargs.sol",
  "compiler": {
    "name": "solc",
    "version": "0.4.18+commit.9cf6e910.Emscripten.clang"
  },
  "schemaVersion": "1.0.1",
  "updatedAt": "2018-06-05T15:25:58.665Z"
}