{
  "contractName": "Neg",
  "abi": [
    {
      "constant": false,
      "inputs": [
        {
          "name": "x",
          "type": "uint256"
        }
      ],
      "name": "f",
      "outputs": [
        {
          "name": "",
          "type": "uint256"
        }
      ],
      "payable": false,
      "stateMutability": "nonpayable",
      "type": "function"
    }
  ],
  "bytecode": "0x60606040523415600e57600080fd5b60988061001c6000396000f300606060405260043610603e5763ffffffff7c0100000000000000000000000000000000000000000000000000000000600035041663b3de648b81146043575b600080fd5b3415604d57600080fd5b60566004356068565b60405190815260200160405180910390f35b19905600a165627a7a72305820481544a03dade3d916e6b40d7f49692931dcabf0f9a25e92d89173a6527491fb0029",
  "source": "contract Neg {\n\tfunction f(uint x) returns (uint) {\n\t\treturn ~x;\n\t}\n}\n\n",
  "sourcePath": "/home/imm/datalogi/decompiler/source/tests/contracts/neg.sol",
  "compiler": {
    "name": "solc",
    "version": "0.4.18+commit.9cf6e910.Emscripten.clang"
  },
  "schemaVersion": "1.0.1",
  "updatedAt": "2018-06-05T15:25:58.665Z"
}