{
  "contractName": "NestedIfElse",
  "abi": [
    {
      "constant": false,
      "inputs": [
        {
          "name": "x",
          "type": "uint256"
        },
        {
          "name": "y",
          "type": "uint256"
        }
      ],
      "name": "f",
      "outputs": [
        {
          "name": "",
          "type": "uint256"
        }
      ],
      "payable": false,
      "stateMutability": "nonpayable",
      "type": "function"
    }
  ],
  "bytecode": "0x6060604052341561000f57600080fd5b60d38061001d6000396000f300606060405260043610603e5763ffffffff7c010000000000000000000000000000000000000000000000000000000060003504166313d1aa2e81146043575b600080fd5b3415604d57600080fd5b6059600435602435606b565b60405190815260200160405180910390f35b6000600183811415608d5782600114156085575060026089565b5060035b60a0565b8260011415609c5750600460a0565b5060055b93925050505600a165627a7a723058206ab52802e83c7350420626000ad56cd213d63b846b84e0fd5492189a07062b700029",
  "source": "contract NestedIfElse {\n\t\n\tfunction f (uint x, uint y) returns (uint) {\n\t\t\n\t\tuint result = 1;\n\t\t\n\t\tif (x == 1) {\n\t\t\tif (y == 1) {\n\t\t\t\tresult = 2;\n\t\t\t}\n\t\t\telse {\n\t\t\t\tresult = 3;\n\t\t\t}\n\t\t}\n\t\telse {\n\t\t\tif (y == 1) {\n\t\t\t\tresult = 4;\n\t\t\t}\n\t\t\telse {\n\t\t\t\tresult = 5;\n\t\t\t}\n\t\t}\n\t\treturn result;\n\t}\n\n}\n",
  "sourcePath": "/home/imm/datalogi/decompiler/source/tests/contracts/nestedifelse.sol",
  "compiler": {
    "name": "solc",
    "version": "0.4.18+commit.9cf6e910.Emscripten.clang"
  },
  "schemaVersion": "1.0.1",
  "updatedAt": "2018-06-05T15:25:58.665Z"
}