{
  "contractName": "NonCom",
  "abi": [
    {
      "constant": false,
      "inputs": [
        {
          "name": "x",
          "type": "uint256"
        }
      ],
      "name": "i",
      "outputs": [
        {
          "name": "",
          "type": "uint256"
        }
      ],
      "payable": false,
      "stateMutability": "nonpayable",
      "type": "function"
    },
    {
      "constant": false,
      "inputs": [
        {
          "name": "x",
          "type": "uint256"
        }
      ],
      "name": "j",
      "outputs": [
        {
          "name": "",
          "type": "uint256"
        }
      ],
      "payable": false,
      "stateMutability": "nonpayable",
      "type": "function"
    },
    {
      "constant": false,
      "inputs": [
        {
          "name": "x",
          "type": "uint256"
        }
      ],
      "name": "f",
      "outputs": [
        {
          "name": "",
          "type": "uint256"
        }
      ],
      "payable": false,
      "stateMutability": "nonpayable",
      "type": "function"
    },
    {
      "constant": false,
      "inputs": [
        {
          "name": "x",
          "type": "uint256"
        }
      ],
      "name": "h",
      "outputs": [
        {
          "name": "",
          "type": "uint256"
        }
      ],
      "payable": false,
      "stateMutability": "nonpayable",
      "type": "function"
    },
    {
      "constant": false,
      "inputs": [
        {
          "name": "x",
          "type": "uint256"
        }
      ],
      "name": "g",
      "outputs": [
        {
          "name": "",
          "type": "uint256"
        }
      ],
      "payable": false,
      "stateMutability": "nonpayable",
      "type": "function"
    }
  ],
  "bytecode": "0x6060604052341561000f57600080fd5b6101298061001e6000396000f30060606040526004361060665763ffffffff7c010000000000000000000000000000000000000000000000000000000060003504166329688a808114606b5780637ece3246146090578063b3de648b1460a3578063cb97492a1460b6578063e420264a1460c9575b600080fd5b3415607557600080fd5b607e60043560dc565b60405190815260200160405180910390f35b3415609a57600080fd5b607e60043560e2565b341560ad57600080fd5b607e60043560e9565b341560c057600080fd5b607e60043560f0565b341560d357600080fd5b607e60043560f7565b60021690565b6002900a90565b6003900490565b6003900690565b60ee16905600a165627a7a72305820b70dd0bc3fb92d3c599ae4692e47f694470586ec5b91ab762e840a1226f9c4ed0029",
  "source": "contract NonCom {\n\tfunction f(uint x) external returns (uint) {\n\t\treturn x / 3;\n\t}\n\t\n\tfunction g(uint x) external returns (uint) {\n\t\treturn x & 0xee;\n\t}\n\n\tfunction h(uint x) external returns (uint) {\n\t\treturn x % 3;\n\t}\n\n\tfunction i(uint x) external returns (uint) {\n\t\treturn x & 2;\n\t}\n\n\tfunction j(uint x) external returns (uint) {\n\t\treturn x**2;\n\t}\n\n}\n",
  "sourcePath": "/home/imm/datalogi/decompiler/source/tests/contracts/noncom.sol",
  "compiler": {
    "name": "solc",
    "version": "0.4.18+commit.9cf6e910.Emscripten.clang"
  },
  "schemaVersion": "1.0.1",
  "updatedAt": "2018-06-05T15:25:58.665Z"
}