{
  "contractName": "Oraclize",
  "abi": [
    {
      "constant": false,
      "inputs": [
        {
          "name": "_timestamp",
          "type": "uint256"
        },
        {
          "name": "_datasource",
          "type": "string"
        },
        {
          "name": "_arg",
          "type": "string"
        }
      ],
      "name": "query1",
      "outputs": [
        {
          "name": "_id",
          "type": "bytes32"
        }
      ],
      "payable": true,
      "stateMutability": "payable",
      "type": "function"
    },
    {
      "constant": false,
      "inputs": [
        {
          "name": "_datasource",
          "type": "string"
        },
        {
          "name": "_gaslimit",
          "type": "uint256"
        }
      ],
      "name": "getPrice",
      "outputs": [
        {
          "name": "_dsprice",
          "type": "uint256"
        }
      ],
      "payable": false,
      "stateMutability": "nonpayable",
      "type": "function"
    },
    {
      "constant": false,
      "inputs": [
        {
          "name": "_datasource",
          "type": "string"
        },
        {
          "name": "_arg",
          "type": "string"
        }
      ],
      "name": "query1",
      "outputs": [
        {
          "name": "_id",
          "type": "bytes32"
        }
      ],
      "payable": true,
      "stateMutability": "payable",
      "type": "function"
    },
    {
      "constant": true,
      "inputs": [],
      "name": "baseprice",
      "outputs": [
        {
          "name": "",
          "type": "uint256"
        }
      ],
      "payable": false,
      "stateMutability": "view",
      "type": "function"
    },
    {
      "constant": false,
      "inputs": [
        {
          "name": "newCbAddress",
          "type": "address"
        }
      ],
      "name": "removeCbAddress",
      "outputs": [],
      "payable": false,
      "stateMutability": "nonpayable",
      "type": "function"
    },
    {
      "constant": false,
      "inputs": [
        {
          "name": "_newSessionPubKeysHash",
          "type": "bytes32[]"
        }
      ],
      "name": "randomDS_updateSessionPubKeysHash",
      "outputs": [],
      "payable": false,
      "stateMutability": "nonpayable",
      "type": "function"
    },
    {
      "constant": false,
      "inputs": [
        {
          "name": "_datasource",
          "type": "string"
        }
      ],
      "name": "getPrice",
      "outputs": [
        {
          "name": "_dsprice",
          "type": "uint256"
        }
      ],
      "payable": false,
      "stateMutability": "nonpayable",
      "type": "function"
    },
    {
      "constant": false,
      "inputs": [
        {
          "name": "_timestamp",
          "type": "uint256"
        },
        {
          "name": "_datasource",
          "type": "string"
        },
        {
          "name": "_arg",
          "type": "string"
        },
        {
          "name": "_gaslimit",
          "type": "uint256"
        }
      ],
      "name": "query1",
      "outputs": [
        {
          "name": "_id",
          "type": "bytes32"
        }
      ],
      "payable": true,
      "stateMutability": "payable",
      "type": "function"
    },
    {
      "constant": false,
      "inputs": [
        {
          "name": "newCbAddress",
          "type": "address"
        },
        {
          "name": "addressType",
          "type": "bytes1"
        }
      ],
      "name": "addCbAddress",
      "outputs": [],
      "payable": false,
      "stateMutability": "nonpayable",
      "type": "function"
    },
    {
      "constant": false,
      "inputs": [
        {
          "name": "_addr",
          "type": "address"
        }
      ],
      "name": "withdrawFunds",
      "outputs": [],
      "payable": false,
      "stateMutability": "nonpayable",
      "type": "function"
    },
    {
      "constant": false,
      "inputs": [
        {
          "name": "_proofType",
          "type": "bytes1"
        }
      ],
      "name": "setProofType",
      "outputs": [],
      "payable": false,
      "stateMutability": "nonpayable",
      "type": "function"
    },
    {
      "constant": false,
      "inputs": [
        {
          "name": "dsHash",
          "type": "bytes32[]"
        },
        {
          "name": "multiplier",
          "type": "uint256[]"
        }
      ],
      "name": "multiAddDSource",
      "outputs": [],
      "payable": false,
      "stateMutability": "nonpayable",
      "type": "function"
    },
    {
      "constant": false,
      "inputs": [
        {
          "name": "_timestamp",
          "type": "uint256"
        },
        {
          "name": "_datasource",
          "type": "string"
        },
        {
          "name": "_arg",
          "type": "string"
        },
        {
          "name": "_gaslimit",
          "type": "uint256"
        }
      ],
      "name": "query1_withGasLimit",
      "outputs": [
        {
          "name": "_id",
          "type": "bytes32"
        }
      ],
      "payable": true,
      "stateMutability": "payable",
      "type": "function"
    },
    {
      "constant": false,
      "inputs": [
        {
          "name": "newCbAddress",
          "type": "address"
        },
        {
          "name": "addressType",
          "type": "bytes1"
        },
        {
          "name": "proof",
          "type": "bytes"
        }
      ],
      "name": "addCbAddress",
      "outputs": [],
      "payable": false,
      "stateMutability": "nonpayable",
      "type": "function"
    },
    {
      "constant": false,
      "inputs": [
        {
          "name": "_timestamp",
          "type": "uint256"
        },
        {
          "name": "_datasource",
          "type": "string"
        },
        {
          "name": "_arg1",
          "type": "string"
        },
        {
          "name": "_arg2",
          "type": "string"
        }
      ],
      "name": "query2",
      "outputs": [
        {
          "name": "_id",
          "type": "bytes32"
        }
      ],
      "payable": true,
      "stateMutability": "payable",
      "type": "function"
    },
    {
      "constant": true,
      "inputs": [
        {
          "name": "",
          "type": "address"
        }
      ],
      "name": "offchainPayment",
      "outputs": [
        {
          "name": "",
          "type": "bool"
        }
      ],
      "payable": false,
      "stateMutability": "view",
      "type": "function"
    },
    {
      "constant": false,
      "inputs": [
        {
          "name": "new_baseprice",
          "type": "uint256"
        },
        {
          "name": "proofID",
          "type": "bytes"
        }
      ],
      "name": "setBasePrice",
      "outputs": [],
      "payable": false,
      "stateMutability": "nonpayable",
      "type": "function"
    },
    {
      "constant": false,
      "inputs": [
        {
          "name": "_timestamp",
          "type": "uint256"
        },
        {
          "name": "_datasource",
          "type": "string"
        },
        {
          "name": "_arg1",
          "type": "string"
        },
        {
          "name": "_arg2",
          "type": "string"
        },
        {
          "name": "_gaslimit",
          "type": "uint256"
        }
      ],
      "name": "query2",
      "outputs": [
        {
          "name": "_id",
          "type": "bytes32"
        }
      ],
      "payable": true,
      "stateMutability": "payable",
      "type": "function"
    },
    {
      "constant": false,
      "inputs": [
        {
          "name": "_newFlagger",
          "type": "address"
        }
      ],
      "name": "changePaymentFlagger",
      "outputs": [],
      "payable": false,
      "stateMutability": "nonpayable",
      "type": "function"
    },
    {
      "constant": false,
      "inputs": [
        {
          "name": "_timestamp",
          "type": "uint256"
        },
        {
          "name": "_datasource",
          "type": "string"
        },
        {
          "name": "_args",
          "type": "bytes"
        },
        {
          "name": "_gaslimit",
          "type": "uint256"
        }
      ],
      "name": "queryN",
      "outputs": [
        {
          "name": "_id",
          "type": "bytes32"
        }
      ],
      "payable": true,
      "stateMutability": "payable",
      "type": "function"
    },
    {
      "constant": false,
      "inputs": [
        {
          "name": "_datasource",
          "type": "string"
        },
        {
          "name": "_arg",
          "type": "string"
        }
      ],
      "name": "query",
      "outputs": [
        {
          "name": "_id",
          "type": "bytes32"
        }
      ],
      "payable": true,
      "stateMutability": "payable",
      "type": "function"
    },
    {
      "constant": false,
      "inputs": [
        {
          "name": "_timestamp",
          "type": "uint256"
        },
        {
          "name": "_datasource",
          "type": "string"
        },
        {
          "name": "_args",
          "type": "bytes"
        }
      ],
      "name": "queryN",
      "outputs": [
        {
          "name": "_id",
          "type": "bytes32"
        }
      ],
      "payable": true,
      "stateMutability": "payable",
      "type": "function"
    },
    {
      "constant": false,
      "inputs": [
        {
          "name": "_timestamp",
          "type": "uint256"
        },
        {
          "name": "_datasource",
          "type": "string"
        },
        {
          "name": "_arg1",
          "type": "string"
        },
        {
          "name": "_arg2",
          "type": "string"
        },
        {
          "name": "_gaslimit",
          "type": "uint256"
        }
      ],
      "name": "query2_withGasLimit",
      "outputs": [
        {
          "name": "_id",
          "type": "bytes32"
        }
      ],
      "payable": true,
      "stateMutability": "payable",
      "type": "function"
    },
    {
      "constant": false,
      "inputs": [
        {
          "name": "_newAdmin",
          "type": "address"
        }
      ],
      "name": "changeAdmin",
      "outputs": [],
      "payable": false,
      "stateMutability": "nonpayable",
      "type": "function"
    },
    {
      "constant": false,
      "inputs": [
        {
          "name": "_datasource",
          "type": "string"
        },
        {
          "name": "_args",
          "type": "bytes"
        }
      ],
      "name": "queryN",
      "outputs": [
        {
          "name": "_id",
          "type": "bytes32"
        }
      ],
      "payable": true,
      "stateMutability": "payable",
      "type": "function"
    },
    {
      "constant": false,
      "inputs": [
        {
          "name": "dsname",
          "type": "string"
        },
        {
          "name": "multiplier",
          "type": "uint256"
        }
      ],
      "name": "addDSource",
      "outputs": [],
      "payable": false,
      "stateMutability": "nonpayable",
      "type": "function"
    },
    {
      "constant": true,
      "inputs": [],
      "name": "randomDS_getSessionPubKeyHash",
      "outputs": [
        {
          "name": "",
          "type": "bytes32"
        }
      ],
      "payable": false,
      "stateMutability": "view",
      "type": "function"
    },
    {
      "constant": false,
      "inputs": [
        {
          "name": "_timestamp",
          "type": "uint256"
        },
        {
          "name": "_datasource",
          "type": "string"
        },
        {
          "name": "_arg1",
          "type": "string"
        },
        {
          "name": "_arg2",
          "type": "string"
        },
        {
          "name": "_fnc",
          "type": "function"
        },
        {
          "name": "_gaslimit",
          "type": "uint256"
        }
      ],
      "name": "query2_fnc",
      "outputs": [
        {
          "name": "_id",
          "type": "bytes32"
        }
      ],
      "payable": true,
      "stateMutability": "payable",
      "type": "function"
    },
    {
      "constant": false,
      "inputs": [
        {
          "name": "_timestamp",
          "type": "uint256"
        },
        {
          "name": "_datasource",
          "type": "string"
        },
        {
          "name": "_arg",
          "type": "string"
        }
      ],
      "name": "query",
      "outputs": [
        {
          "name": "_id",
          "type": "bytes32"
        }
      ],
      "payable": true,
      "stateMutability": "payable",
      "type": "function"
    },
    {
      "constant": false,
      "inputs": [
        {
          "name": "dsname",
          "type": "string"
        },
        {
          "name": "proofType",
          "type": "bytes1"
        },
        {
          "name": "multiplier",
          "type": "uint256"
        }
      ],
      "name": "addDSource",
      "outputs": [],
      "payable": false,
      "stateMutability": "nonpayable",
      "type": "function"
    },
    {
      "constant": false,
      "inputs": [
        {
          "name": "newgasprice",
          "type": "uint256"
        }
      ],
      "name": "setGasPrice",
      "outputs": [],
      "payable": false,
      "stateMutability": "nonpayable",
      "type": "function"
    },
    {
      "constant": true,
      "inputs": [],
      "name": "cbAddress",
      "outputs": [
        {
          "name": "_cbAddress",
          "type": "address"
        }
      ],
      "payable": false,
      "stateMutability": "view",
      "type": "function"
    },
    {
      "constant": false,
      "inputs": [
        {
          "name": "_timestamp",
          "type": "uint256"
        },
        {
          "name": "_datasource",
          "type": "string"
        },
        {
          "name": "_arg",
          "type": "string"
        },
        {
          "name": "_gaslimit",
          "type": "uint256"
        }
      ],
      "name": "query_withGasLimit",
      "outputs": [
        {
          "name": "_id",
          "type": "bytes32"
        }
      ],
      "payable": true,
      "stateMutability": "payable",
      "type": "function"
    },
    {
      "constant": false,
      "inputs": [
        {
          "name": "_timestamp",
          "type": "uint256"
        },
        {
          "name": "_datasource",
          "type": "string"
        },
        {
          "name": "_args",
          "type": "bytes"
        },
        {
          "name": "_gaslimit",
          "type": "uint256"
        }
      ],
      "name": "queryN_withGasLimit",
      "outputs": [
        {
          "name": "_id",
          "type": "bytes32"
        }
      ],
      "payable": true,
      "stateMutability": "payable",
      "type": "function"
    },
    {
      "constant": false,
      "inputs": [
        {
          "name": "_gasPrice",
          "type": "uint256"
        }
      ],
      "name": "setCustomGasPrice",
      "outputs": [],
      "payable": false,
      "stateMutability": "nonpayable",
      "type": "function"
    },
    {
      "constant": false,
      "inputs": [
        {
          "name": "_gasPrice",
          "type": "uint256[]"
        },
        {
          "name": "_addr",
          "type": "address[]"
        }
      ],
      "name": "multisetCustomGasPrice",
      "outputs": [],
      "payable": false,
      "stateMutability": "nonpayable",
      "type": "function"
    },
    {
      "constant": true,
      "inputs": [
        {
          "name": "",
          "type": "address"
        }
      ],
      "name": "cbAddresses",
      "outputs": [
        {
          "name": "",
          "type": "bytes1"
        }
      ],
      "payable": false,
      "stateMutability": "view",
      "type": "function"
    },
    {
      "constant": false,
      "inputs": [
        {
          "name": "_proofType",
          "type": "uint256[]"
        },
        {
          "name": "_addr",
          "type": "address[]"
        }
      ],
      "name": "multisetProofType",
      "outputs": [],
      "payable": false,
      "stateMutability": "nonpayable",
      "type": "function"
    },
    {
      "constant": false,
      "inputs": [
        {
          "name": "_timestamp",
          "type": "uint256"
        },
        {
          "name": "_datasource",
          "type": "string"
        },
        {
          "name": "_arg",
          "type": "string"
        },
        {
          "name": "_fnc",
          "type": "function"
        },
        {
          "name": "_gaslimit",
          "type": "uint256"
        }
      ],
      "name": "query1_fnc",
      "outputs": [
        {
          "name": "_id",
          "type": "bytes32"
        }
      ],
      "payable": true,
      "stateMutability": "payable",
      "type": "function"
    },
    {
      "constant": false,
      "inputs": [
        {
          "name": "new_baseprice",
          "type": "uint256"
        }
      ],
      "name": "setBasePrice",
      "outputs": [],
      "payable": false,
      "stateMutability": "nonpayable",
      "type": "function"
    },
    {
      "constant": true,
      "inputs": [
        {
          "name": "",
          "type": "uint256"
        }
      ],
      "name": "randomDS_sessionPubKeysHash",
      "outputs": [
        {
          "name": "",
          "type": "bytes32"
        }
      ],
      "payable": false,
      "stateMutability": "view",
      "type": "function"
    },
    {
      "constant": false,
      "inputs": [
        {
          "name": "_datasource",
          "type": "string"
        },
        {
          "name": "_arg1",
          "type": "string"
        },
        {
          "name": "_arg2",
          "type": "string"
        }
      ],
      "name": "query2",
      "outputs": [
        {
          "name": "_id",
          "type": "bytes32"
        }
      ],
      "payable": true,
      "stateMutability": "payable",
      "type": "function"
    },
    {
      "constant": false,
      "inputs": [
        {
          "name": "_addr",
          "type": "address"
        },
        {
          "name": "_flag",
          "type": "bool"
        }
      ],
      "name": "setOffchainPayment",
      "outputs": [],
      "payable": false,
      "stateMutability": "nonpayable",
      "type": "function"
    },
    {
      "constant": false,
      "inputs": [
        {
          "name": "_timestamp",
          "type": "uint256"
        },
        {
          "name": "_datasource",
          "type": "string"
        },
        {
          "name": "_args",
          "type": "bytes"
        },
        {
          "name": "_fnc",
          "type": "function"
        },
        {
          "name": "_gaslimit",
          "type": "uint256"
        }
      ],
      "name": "queryN_fnc",
      "outputs": [
        {
          "name": "_id",
          "type": "bytes32"
        }
      ],
      "payable": true,
      "stateMutability": "payable",
      "type": "function"
    },
    {
      "inputs": [],
      "payable": false,
      "stateMutability": "nonpayable",
      "type": "constructor"
    },
    {
      "anonymous": false,
      "inputs": [
        {
          "indexed": false,
          "name": "sender",
          "type": "address"
        },
        {
          "indexed": false,
          "name": "cid",
          "type": "bytes32"
        },
        {
          "indexed": false,
          "name": "timestamp",
          "type": "uint256"
        },
        {
          "indexed": false,
          "name": "datasource",
          "type": "string"
        },
        {
          "indexed": false,
          "name": "arg",
          "type": "string"
        },
        {
          "indexed": false,
          "name": "gaslimit",
          "type": "uint256"
        },
        {
          "indexed": false,
          "name": "proofType",
          "type": "bytes1"
        },
        {
          "indexed": false,
          "name": "gasPrice",
          "type": "uint256"
        }
      ],
      "name": "Log1",
      "type": "event"
    },
    {
      "anonymous": false,
      "inputs": [
        {
          "indexed": false,
          "name": "sender",
          "type": "address"
        },
        {
          "indexed": false,
          "name": "cid",
          "type": "bytes32"
        },
        {
          "indexed": false,
          "name": "timestamp",
          "type": "uint256"
        },
        {
          "indexed": false,
          "name": "datasource",
          "type": "string"
        },
        {
          "indexed": false,
          "name": "arg1",
          "type": "string"
        },
        {
          "indexed": false,
          "name": "arg2",
          "type": "string"
        },
        {
          "indexed": false,
          "name": "gaslimit",
          "type": "uint256"
        },
        {
          "indexed": false,
          "name": "proofType",
          "type": "bytes1"
        },
        {
          "indexed": false,
          "name": "gasPrice",
          "type": "uint256"
        }
      ],
      "name": "Log2",
      "type": "event"
    },
    {
      "anonymous": false,
      "inputs": [
        {
          "indexed": false,
          "name": "sender",
          "type": "address"
        },
        {
          "indexed": false,
          "name": "cid",
          "type": "bytes32"
        },
        {
          "indexed": false,
          "name": "timestamp",
          "type": "uint256"
        },
        {
          "indexed": false,
          "name": "datasource",
          "type": "string"
        },
        {
          "indexed": false,
          "name": "args",
          "type": "bytes"
        },
        {
          "indexed": false,
          "name": "gaslimit",
          "type": "uint256"
        },
        {
          "indexed": false,
          "name": "proofType",
          "type": "bytes1"
        },
        {
          "indexed": false,
          "name": "gasPrice",
          "type": "uint256"
        }
      ],
      "name": "LogN",
      "type": "event"
    },
    {
      "anonymous": false,
      "inputs": [
        {
          "indexed": false,
          "name": "sender",
          "type": "address"
        },
        {
          "indexed": false,
          "name": "cid",
          "type": "bytes32"
        },
        {
          "indexed": false,
          "name": "timestamp",
          "type": "uint256"
        },
        {
          "indexed": false,
          "name": "datasource",
          "type": "string"
        },
        {
          "indexed": false,
          "name": "arg",
          "type": "string"
        },
        {
          "indexed": false,
          "name": "callback",
          "type": "function"
        },
        {
          "indexed": false,
          "name": "gaslimit",
          "type": "uint256"
        },
        {
          "indexed": false,
          "name": "proofType",
          "type": "bytes1"
        },
        {
          "indexed": false,
          "name": "gasPrice",
          "type": "uint256"
        }
      ],
      "name": "Log1_fnc",
      "type": "event"
    },
    {
      "anonymous": false,
      "inputs": [
        {
          "indexed": false,
          "name": "sender",
          "type": "address"
        },
        {
          "indexed": false,
          "name": "cid",
          "type": "bytes32"
        },
        {
          "indexed": false,
          "name": "timestamp",
          "type": "uint256"
        },
        {
          "indexed": false,
          "name": "datasource",
          "type": "string"
        },
        {
          "indexed": false,
          "name": "arg1",
          "type": "string"
        },
        {
          "indexed": false,
          "name": "arg2",
          "type": "string"
        },
        {
          "indexed": false,
          "name": "callback",
          "type": "function"
        },
        {
          "indexed": false,
          "name": "gaslimit",
          "type": "uint256"
        },
        {
          "indexed": false,
          "name": "proofType",
          "type": "bytes1"
        },
        {
          "indexed": false,
          "name": "gasPrice",
          "type": "uint256"
        }
      ],
      "name": "Log2_fnc",
      "type": "event"
    },
    {
      "anonymous": false,
      "inputs": [
        {
          "indexed": false,
          "name": "sender",
          "type": "address"
        },
        {
          "indexed": false,
          "name": "cid",
          "type": "bytes32"
        },
        {
          "indexed": false,
          "name": "timestamp",
          "type": "uint256"
        },
        {
          "indexed": false,
          "name": "datasource",
          "type": "string"
        },
        {
          "indexed": false,
          "name": "args",
          "type": "bytes"
        },
        {
          "indexed": false,
          "name": "callback",
          "type": "function"
        },
        {
          "indexed": false,
          "name": "gaslimit",
          "type": "uint256"
        },
        {
          "indexed": false,
          "name": "proofType",
          "type": "bytes1"
        },
        {
          "indexed": false,
          "name": "gasPrice",
          "type": "uint256"
        }
      ],
      "name": "LogN_fnc",
      "type": "event"
    },
    {
      "anonymous": false,
      "inputs": [
        {
          "indexed": true,
          "name": "idx_sender",
          "type": "address"
        },
        {
          "indexed": false,
          "name": "sender",
          "type": "address"
        },
        {
          "indexed": true,
          "name": "idx_flag",
          "type": "bool"
        },
        {
          "indexed": false,
          "name": "flag",
          "type": "bool"
        }
      ],
      "name": "Emit_OffchainPaymentFlag",
      "type": "event"
    }
  ],
  "bytecode": "0x60606040526404a817c800600555341561001857600080fd5b60038054600160a060020a03191633600160a060020a0316179055612807806100426000396000f3006060604052600436106102195763ffffffff7c010000000000000000000000000000000000000000000000000000000060003504166323dc42e7811461021e5780632ef3accc1461025357806345362978146102a6578063480a434d146102c55780634a64c23f146102d8578063512c0b9c146102f9578063524f3889146103175780635c242c5914610368578063627fd3bb146103f757806368742da614610429578063688dcfd7146104485780636c0f7ee71461046e57806375700437146104985780637653740f146104be57806377228659146105335780637bc9165b146105625780637d242ae5146105955780637e1c4205146105b7578063801298fa1461068857806380325b2d146106a757806381ade307146102a657806383eed3d51461073657806385dee34c146107595780638f2839701461078b57806398cf6f22146107aa578063a2ec191a146107c9578063abaa5f3e146107eb578063ad44d0ca146107fe578063adf59f991461021e578063b5bfdd73146108f9578063bf1fe42014610961578063c281d19e14610977578063c51be90f14610498578063c55c1cb6146109a6578063ca6ad1e4146109cc578063d9597016146109e2578063db23995114610a0c578063db37e42f14610a4e578063dba8fc6114610a78578063de4b326214610b31578063e6c0e9e114610b47578063e839e65e14610b5d578063e8be385314610b88578063f84072a514610bac575b600080fd5b610241600480359060248035808201929081013591604435908101910135610c65565b60405190815260200160405180910390f35b341561025e57600080fd5b61024160046024813581810190830135806020601f820181900481020160405190810160405281815292919060208401838380828437509496505093359350610ce192505050565b6102416024600480358281019290820135918135918201910135610cf5565b34156102d057600080fd5b610241610d71565b34156102e357600080fd5b6102f7600160a060020a0360043516610d77565b005b341561030457600080fd5b6102f76004803560248101910135610da0565b341561032257600080fd5b61024160046024813581810190830135806020601f82018190048102016040519081016040528181529291906020840183838082843750949650610e0d95505050505050565b610241600480359060446024803590810190830135806020601f8201819004810201604051908101604052818152929190602084018383808284378201915050505050509190803590602001908201803590602001908080601f0160208091040260200160405190810160405281815292919060208401838380828437509496505093359350610e1f92505050565b341561040257600080fd5b6102f7600160a060020a03600435166000805160206127bc83398151915260243516611044565b341561043457600080fd5b6102f7600160a060020a0360043516611069565b341561045357600080fd5b6102f76000805160206127bc833981519152600435166110a6565b341561047957600080fd5b6102f760246004803582810192908201359181359182019101356110d4565b610241600480359060248035808201929081013591604435908101910135606435611178565b34156104c957600080fd5b6102f760048035600160a060020a031690602480356000805160206127bc83398151915216919060649060443590810190830135806020601f820181900481020160405190810160405281815292919060208401838380828437509496506111f295505050505050565b61024160048035906024803580820192908101359160443580820192908101359160643590810191013561122b565b341561056d57600080fd5b610581600160a060020a03600435166112db565b604051901515815260200160405180910390f35b34156105a057600080fd5b6102f76004803590602480359081019101356112f0565b610241600480359060446024803590810190830135806020601f8201819004810201604051908101604052818152929190602084018383808284378201915050505050509190803590602001908201803590602001908080601f01602080910402602001604051908101604052818152929190602084018383808284378201915050505050509190803590602001908201803590602001908080601f016020809104026020016040519081016040528181529291906020840183838082843750949650509335935061138292505050565b341561069357600080fd5b6102f7600160a060020a0360043516611616565b610241600480359060446024803590810190830135806020601f8201819004810201604051908101604052818152929190602084018383808284378201915050505050509190803590602001908201803590602001908080601f016020809104026020016040519081016040528181529291906020840183838082843750949650509335935061164d92505050565b6102416004803590602480358082019290810135916044359081019101356117c4565b610241600480359060248035808201929081013591604435808201929081013591606435908101910135608435611836565b341561079657600080fd5b6102f7600160a060020a03600435166118e4565b610241602460048035828101929082013591813591820191013561191b565b34156107d457600080fd5b6102f760246004803582810192910135903561198e565b34156107f657600080fd5b6102416119cb565b610241600480359060446024803590810190830135806020601f8201819004810201604051908101604052818152929190602084018383808284378201915050505050509190803590602001908201803590602001908080601f01602080910402602001604051908101604052818152929190602084018383808284378201915050505050509190803590602001908201803590602001908080601f016020809104026020016040519081016040528181529291906020840183838082843750949650506c010000000000000000000000008535908104956801000000000000000090910463ffffffff169450602001359250611a2c915050565b341561090457600080fd5b6102f760046024813581810190830135806020601f82018190048102016040519081016040528181529291906020840183838082843750949650506000805160206127bc83398151915285351694602001359350611d0592505050565b341561096c57600080fd5b6102f7600435611dc6565b341561098257600080fd5b61098a611dd3565b604051600160a060020a03909116815260200160405180910390f35b610241600480359060248035808201929081013591604435908101910135606435611e0d565b34156109d757600080fd5b6102f7600435611e7c565b34156109ed57600080fd5b6102f76024600480358281019290820135918135918201910135611e97565b3415610a1757600080fd5b610a2b600160a060020a0360043516611efd565b6040516000805160206127bc833981519152909116815260200160405180910390f35b3415610a5957600080fd5b6102f76024600480358281019290820135918135918201910135611f15565b610241600480359060446024803590810190830135806020601f8201819004810201604051908101604052818152929190602084018383808284378201915050505050509190803590602001908201803590602001908080601f016020809104026020016040519081016040528181529291906020840183838082843750949650506c010000000000000000000000008535908104956801000000000000000090910463ffffffff169450602001359250611f94915050565b3415610b3c57600080fd5b6102f7600435612200565b3415610b5257600080fd5b61024160043561228c565b61024160246004803582810192908201359181358083019290820135916044359182019101356122ab565b3415610b9357600080fd5b6102f7600160a060020a03600435166024351515612350565b610241600480359060446024803590810190830135806020601f8201819004810201604051908101604052818152929190602084018383808284378201915050505050509190803590602001908201803590602001908080601f016020809104026020016040519081016040528181529291906020840183838082843750949650506c010000000000000000000000008535908104956801000000000000000090910463ffffffff1694506020013592506123e1915050565b6000610cd78686868080601f016020809104026020016040519081016040528181529291906020840183838082843782019150505050505085858080601f01602080910402602001604051908101604052818152929190602084018383808284375062030d409450610e1f9350505050565b9695505050505050565b6000610cee83833361259b565b9392505050565b6000610d68600086868080601f016020809104026020016040519081016040528181529291906020840183838082843782019150505050505085858080601f01602080910402602001604051908101604052818152929190602084018383808284375062030d409450610e1f9350505050565b95945050505050565b60085481565b610d7f6126f7565b600160a060020a03166000908152600160205260409020805460ff19169055565b6000610daa6126f7565b6000610db7600c82612782565b50600090505b81811015610e0857600c805460018101610dd78382612782565b916000526020600020900160008585858181101515610df257fe5b6020029190910135909255505050600101610dbd565b505050565b6000610e198233612714565b92915050565b6000610e2b8483612724565b5042624f1a0001851180610e3e57504582115b15610e4857600080fd5b303360008033600160a060020a0316600160a060020a03168152602001908152602001600020546040516c01000000000000000000000000600160a060020a0394851681028252929093169091026014830152602882015260480160405190819003902033600160a060020a038116600090815260208181526040808320805460010190556006825280832054600790925291829020549394507fb76d0edd90c6a07aa3ff7a222d7f5933e29c6acc660c059c97837f05c4ca1a849385928a928a928a928a9260f860020a02919051600160a060020a0389168152602081018890526040810187905260a081018490526000805160206127bc833981519152831660c082015260e0810182905261010060608201818152906080830190830188818151815260200191508051906020019080838360005b83811015610f97578082015183820152602001610f7f565b50505050905090810190601f168015610fc45780820380516001836020036101000a031916815260200191505b50838103825287818151815260200191508051906020019080838360005b83811015610ffa578082015183820152602001610fe2565b50505050905090810190601f1680156110275780820380516001836020036101000a031916815260200191505b509a505050505050505050505060405180910390a1949350505050565b61104c6126f7565b61106582826020604051908101604052600081526111f2565b5050565b6110716126f7565b80600160a060020a03166108fc30600160a060020a0316319081150290604051600060405180830381858888f1505050505050565b33600160a060020a03166000908152600660205260409020805460ff191660f860020a909204919091179055565b60006110de6126f7565b5060005b83811015611171578484828181106110f657fe5b600b8054602090920293909301359291506111148260018301612782565b8154811061111e57fe5b60009182526020909120015582828281811061113657fe5b90506020020135600a6000878785818110151561114f57fe5b60209081029290920135835250810191909152604001600020556001016110e2565b5050505050565b60006111e78787878080601f016020809104026020016040519081016040528181529291906020840183838082843782019150505050505086868080601f0160208091040260200160405190810160405281815292919060208401838380828437508a9450610e1f9350505050565b979650505050505050565b6111fa6126f7565b50600160a060020a03919091166000908152600160205260409020805460ff191660f860020a909204919091179055565b60006112cf8888888080601f016020809104026020016040519081016040528181529291906020840183838082843782019150505050505087878080601f016020809104026020016040519081016040528181529291906020840183838082843782019150505050505086868080601f01602080910402602001604051908101604052818152929190602084018383808284375062030d4094506113829350505050565b98975050505050505050565b60026020526000908152604090205460ff1681565b60006112fa6126f7565b50600883905560005b600b5481101561137c57600a6000600b8381548110151561132057fe5b9060005260206000209001546000191660001916815260200190815260200160002054840260096000600b8481548110151561135857fe5b60009182526020808320909101548352820192909252604001902055600101611303565b50505050565b600061138e8583612724565b5042624f1a00018611806113a157504582115b156113ab57600080fd5b303360008033600160a060020a0316600160a060020a03168152602001908152602001600020546040516c01000000000000000000000000600160a060020a0394851681028252929093169091026014830152602882015260480160405190819003902033600160a060020a038116600090815260208181526040808320805460010190556006825280832054600790925291829020549394507faf30e4d66b2f1f23e63ef4591058a897f67e6867233e33ca3508b982dcc4129b9385928b928b928b928b928b9260f860020a9091029151600160a060020a038a168152602081018990526040810188905260c081018490526000805160206127bc833981519152831660e082015261010081018290526101206060820181815290608083019060a084019084018a818151815260200191508051906020019080838360005b838110156115035780820151838201526020016114eb565b50505050905090810190601f1680156115305780820380516001836020036101000a031916815260200191505b50848103835289818151815260200191508051906020019080838360005b8381101561156657808201518382015260200161154e565b50505050905090810190601f1680156115935780820380516001836020036101000a031916815260200191505b50848103825288818151815260200191508051906020019080838360005b838110156115c95780820151838201526020016115b1565b50505050905090810190601f1680156115f65780820380516001836020036101000a031916815260200191505b509c5050505050505050505050505060405180910390a195945050505050565b61161e6126f7565b6004805473ffffffffffffffffffffffffffffffffffffffff1916600160a060020a0392909216919091179055565b60006116598483612724565b5042624f1a000185118061166c57504582115b1561167657600080fd5b303360008033600160a060020a0316600160a060020a03168152602001908152602001600020546040516c01000000000000000000000000600160a060020a0394851681028252929093169091026014830152602882015260480160405190819003902033600160a060020a038116600090815260208181526040808320805460010190556006825280832054600790925291829020549394507f3af7d71c651d8670228b02a0b636ffa73a7f759ef99ff9c024bc3b044a7244389385928a928a928a928a9260f860020a02919051600160a060020a0389168152602081018890526040810187905260a081018490526000805160206127bc833981519152831660c082015260e08101829052610100606082018181529060808301908301888181518152602001915080519060200190808383600083811015610f97578082015183820152602001610f7f565b6000610cd78686868080601f016020809104026020016040519081016040528181529291906020840183838082843782019150505050505085858080601f01602080910402602001604051908101604052818152929190602084018383808284375062030d40945061164d9350505050565b60006118d78989898080601f016020809104026020016040519081016040528181529291906020840183838082843782019150505050505088888080601f016020809104026020016040519081016040528181529291906020840183838082843782019150505050505087878080601f0160208091040260200160405190810160405281815292919060208401838380828437508b94506113829350505050565b9998505050505050505050565b6118ec6126f7565b6003805473ffffffffffffffffffffffffffffffffffffffff1916600160a060020a0392909216919091179055565b6000610d68600086868080601f016020809104026020016040519081016040528181529291906020840183838082843782019150505050505085858080601f01602080910402602001604051908101604052818152929190602084018383808284375062030d40945061164d9350505050565b610e0883838080601f01602080910402602001604051908101604052818152929190602084018383808284375060009450879350611d0592505050565b600c54600160a060020a0333166000908152602081905260408082205491928392909151908152602001604051908190039020811515611a0757fe5b069050600c81815481101515611a1957fe5b90600052602060002090015491505b5090565b6000611a388783612724565b5042624f1a0001881180611a4b57504582115b80611a68575033600160a060020a031684600160a060020a031614155b15611a7257600080fd5b303360008033600160a060020a0316600160a060020a03168152602001908152602001600020546040516c01000000000000000000000000600160a060020a0394851681028252929093169091026014830152602882015260480160405190819003902033600160a060020a038116600090815260208181526040808320805460010190556006825280832054600790925291829020549394507fcc57f89a6a20799d672e6569d224340220a0891ad6efa3039e7728f0c88854b39385928d928d928d928d928d928d928d9260f860020a02919051600160a060020a038c168152602081018b9052604081018a905268010000000000000000640100000000870263ffffffff8716170260c082015260e081018490526000805160206127bc833981519152831661010082015261012081018290526101406060820181815290608083019060a084019084018c818151815260200191508051906020019080838360005b83811015611bee578082015183820152602001611bd6565b50505050905090810190601f168015611c1b5780820380516001836020036101000a031916815260200191505b5084810383528b818151815260200191508051906020019080838360005b83811015611c51578082015183820152602001611c39565b50505050905090810190601f168015611c7e5780820380516001836020036101000a031916815260200191505b5084810382528a818151815260200191508051906020019080838360005b83811015611cb4578082015183820152602001611c9c565b50505050905090810190601f168015611ce15780820380516001836020036101000a031916815260200191505b509e50505050505050505050505050505060405180910390a1979650505050505050565b6000611d0f6126f7565b83836040518083805190602001908083835b60208310611d405780518252601f199092019160209182019101611d21565b6001836020036101000a03801982511681845116179092525050506000805160206127bc833981519152909416919093019081526001019250604091505051908190039020600b80549192508291611d9b8260018301612782565b81548110611da557fe5b6000918252602080832090910192909255918252600a905260409020555050565b611dce6126f7565b600555565b32600160a060020a031660009081526001602052604081205460f860020a026000805160206127bc8339815191521615611e0a5750325b90565b60006111e78787878080601f016020809104026020016040519081016040528181529291906020840183838082843782019150505050505086868080601f0160208091040260200160405190810160405281815292919060208401838380828437508a945061164d9350505050565b600160a060020a033316600090815260076020526040902055565b6000611ea16126f7565b5060005b8181101561117157848482818110611eb957fe5b90506020020135600760008585858181101515611ed257fe5b60209081029290920135600160a060020a031683525081019190915260400160002055600101611ea5565b60016020526000908152604090205460f860020a0281565b6000611f1f6126f7565b5060005b8181101561117157848482818110611f3757fe5b9050602002013560f860020a02600660008585858181101515611f5657fe5b60209081029290920135600160a060020a0316835250810191909152604001600020805460ff191660f860020a909204919091179055600101611f23565b6000611fa08683612724565b5042624f1a0001871180611fb357504582115b80611fd0575033600160a060020a031684600160a060020a031614155b15611fda57600080fd5b303360008033600160a060020a0316600160a060020a03168152602001908152602001600020546040516c01000000000000000000000000600160a060020a0394851681028252929093169091026014830152602882015260480160405190819003902033600160a060020a038116600090815260208181526040808320805460010190556006825280832054600790925291829020549394507f5051eab4e301cef16e893db3c7a192f8cbf7bb44e1a92b928665c66170930a399385928c928c928c928c928c928c9260f860020a9092029151600160a060020a038b168152602081018a90526040810189905268010000000000000000640100000000870263ffffffff8716170260a082015260c081018490526000805160206127bc833981519152831660e082015261010081018290526101206060820181815290608083019083018a818151815260200191508051906020019080838360005b8381101561214f578082015183820152602001612137565b50505050905090810190601f16801561217c5780820380516001836020036101000a031916815260200191505b50838103825289818151815260200191508051906020019080838360005b838110156121b257808201518382015260200161219a565b50505050905090810190601f1680156121df5780820380516001836020036101000a031916815260200191505b509c5050505050505050505050505060405180910390a19695505050505050565b600061220a6126f7565b50600881905560005b600b5481101561106557600a6000600b8381548110151561223057fe5b9060005260206000209001546000191660001916815260200190815260200160002054820260096000600b8481548110151561226857fe5b60009182526020808320909101548352820192909252604001902055600101612213565b600c80548290811061229a57fe5b600091825260209091200154905081565b60006111e7600088888080601f016020809104026020016040519081016040528181529291906020840183838082843782019150505050505087878080601f016020809104026020016040519081016040528181529291906020840183838082843782019150505050505086868080601f01602080910402602001604051908101604052818152929190602084018383808284375062030d4094506113829350505050565b60045433600160a060020a0390811691161461236b57600080fd5b600160a060020a03821660008181526002602052604090819020805460ff191684151590811790915591907f84feab93d65c19f28e91b26f8245938bf3a97dab7b8dafe3c8b028954e9ac934908590859051600160a060020a039092168252151560208201526040908101905180910390a35050565b60006123ed8683612724565b5042624f1a000187118061240057504582115b8061241d575033600160a060020a031684600160a060020a031614155b1561242757600080fd5b303360008033600160a060020a0316600160a060020a03168152602001908152602001600020546040516c01000000000000000000000000600160a060020a0394851681028252929093169091026014830152602882015260480160405190819003902033600160a060020a038116600090815260208181526040808320805460010190556006825280832054600790925291829020549394507f90552fb8e54d9a2aa4212413b16aa948c66cab32c9fe727ff74be1850bb0a8be9385928c928c928c928c928c928c9260f860020a9092029151600160a060020a038b168152602081018a90526040810189905268010000000000000000640100000000870263ffffffff8716170260a082015260c081018490526000805160206127bc833981519152831660e082015261010081018290526101206060820181815290608083019083018a818151815260200191508051906020019080838360008381101561214f578082015183820152602001612137565b600160a060020a038116600090815260076020908152604080832054600290925282205460ff1680612624575062030d4084111580156125f15750600160a060020a038316600090815260208190526040902054155b80156125ff57506005548111155b8015612624575061260e611dd3565b600160a060020a031632600160a060020a031614155b1561263257600091506126ef565b80151561263e57506005545b600160a060020a0383166000908152600660205260408082205460099291889160f860020a0290518083805190602001908083835b602083106126925780518252601f199092019160209182019101612673565b6001836020036101000a03801982511681845116179092525050506000805160206127bc83398151915290941691909301908152600101925060409150505190819003902081526020810191909152604001600020548482020191505b509392505050565b60035433600160a060020a0390811691161461271257600080fd5b565b6000610cee8362030d408461259b565b60008061273284843361259b565b915034829010610219578134039050600081111561277b57600160a060020a03331681156108fc0282604051600060405180830381858888f19350505050151561277b57600080fd5b5092915050565b815481835581811511610e0857600083815260209020610e08918101908301611e0a91905b80821115611a2857600081556001016127a75600ff00000000000000000000000000000000000000000000000000000000000000a165627a7a72305820512223e68cd679243e6203a5f67edeb4e3f4d75d18b7276db9f1a759d96ec07e0029",
  "source": "// https://etherscan.io/address/0x3dbdc81a6edc94c720b0b88fb65dbd7e395fdcf6#code\n/*\nCopyright (c) 2015-2016 Oraclize SRL\nCopyright (c) 2016-2017 Oraclize LTD\n*/\n\n/*\nOraclize Connector v1.2.0\n*/\n\n// 'compressed' alternative, where all modifiers have been changed to FUNCTIONS\n// which is cheaper for deployment, potentially cheaper execution\n\npragma solidity ^0.4.11;\n\ncontract Oraclize {\n    mapping (address => uint) reqc;\n\n    mapping (address => byte) public cbAddresses;\n\n    mapping (address => bool) public offchainPayment;\n\n    event Log1(address sender, bytes32 cid, uint timestamp, string datasource, string arg, uint gaslimit, byte proofType, uint gasPrice);\n    event Log2(address sender, bytes32 cid, uint timestamp, string datasource, string arg1, string arg2, uint gaslimit, byte proofType, uint gasPrice);\n    event LogN(address sender, bytes32 cid, uint timestamp, string datasource, bytes args, uint gaslimit, byte proofType, uint gasPrice);\n    event Log1_fnc(address sender, bytes32 cid, uint timestamp, string datasource, string arg, function() external callback, uint gaslimit, byte proofType, uint gasPrice);\n    event Log2_fnc(address sender, bytes32 cid, uint timestamp, string datasource, string arg1, string arg2, function() external callback, uint gaslimit, byte proofType, uint gasPrice);\n    event LogN_fnc(address sender, bytes32 cid, uint timestamp, string datasource, bytes args, function() external callback, uint gaslimit, byte proofType, uint gasPrice);\n\n    event Emit_OffchainPaymentFlag(address indexed idx_sender, address sender, bool indexed idx_flag, bool flag);\n\n    address owner;\n    address paymentFlagger;\n\n    function changeAdmin(address _newAdmin)\n    external\n    {\n        onlyadmin();\n        owner = _newAdmin;\n    }\n\n    function changePaymentFlagger(address _newFlagger)\n    external\n    {\n        onlyadmin();\n        paymentFlagger = _newFlagger;\n    }\n\n    function addCbAddress(address newCbAddress, byte addressType)\n    external\n    {\n        onlyadmin();\n        //bytes memory nil = '';\n        addCbAddress(newCbAddress, addressType, hex'');\n    }\n\n    // proof is currently a placeholder for when associated proof for addressType is added\n    function addCbAddress(address newCbAddress, byte addressType, bytes proof)\n    public\n    {\n        onlyadmin();\n        cbAddresses[newCbAddress] = addressType;\n    }\n\n    function removeCbAddress(address newCbAddress)\n    external\n    {\n        onlyadmin();\n        delete cbAddresses[newCbAddress];\n    }\n\n    function cbAddress()\n    constant\n    returns (address _cbAddress)\n    {\n        if (cbAddresses[tx.origin] != 0)\n            _cbAddress = tx.origin;\n    }\n\n    function addDSource(string dsname, uint multiplier)\n    external\n    {\n        addDSource(dsname, 0x00, multiplier);\n    }\n\n    function addDSource(string dsname, byte proofType, uint multiplier)\n    public\n    {\n        onlyadmin();\n        bytes32 dsname_hash = sha3(dsname, proofType);\n        dsources[dsources.length++] = dsname_hash;\n        price_multiplier[dsname_hash] = multiplier;\n    }\n\n    // Utilized by bridge\n    function multiAddDSource(bytes32[] dsHash, uint256[] multiplier)\n    external\n    {\n        onlyadmin();\n        // dsHash -> sha3(DATASOURCE_NAME, PROOF_TYPE);\n        for (uint i=0; i<dsHash.length; i++) {\n            dsources[dsources.length++] = dsHash[i];\n            price_multiplier[dsHash[i]] = multiplier[i];\n        }\n    }\n\n    function multisetProofType(uint[] _proofType, address[] _addr)\n    external\n    {\n        onlyadmin();\n        for (uint i=0; i<_addr.length; i++) addr_proofType[_addr[i]] = byte(_proofType[i]);\n    }\n\n    function multisetCustomGasPrice(uint[] _gasPrice, address[] _addr)\n    external\n    {\n        onlyadmin();\n        for (uint i=0; i<_addr.length; i++) addr_gasPrice[_addr[i]] = _gasPrice[i];\n    }\n\n    uint gasprice = 20000000000;\n\n    function setGasPrice(uint newgasprice)\n    external\n    {\n        onlyadmin();\n        gasprice = newgasprice;\n    }\n\n    function setBasePrice(uint new_baseprice)\n    external\n    { //0.001 usd in ether\n        onlyadmin();\n        baseprice = new_baseprice;\n        for (uint i=0; i<dsources.length; i++) price[dsources[i]] = new_baseprice*price_multiplier[dsources[i]];\n    }\n\n    function setBasePrice(uint new_baseprice, bytes proofID)\n    external\n    { //0.001 usd in ether\n        onlyadmin();\n        baseprice = new_baseprice;\n        for (uint i=0; i<dsources.length; i++) price[dsources[i]] = new_baseprice*price_multiplier[dsources[i]];\n    }\n\n    function setOffchainPayment(address _addr, bool _flag)\n    external\n    {\n      if (msg.sender != paymentFlagger) throw;\n      offchainPayment[_addr] = _flag;\n      Emit_OffchainPaymentFlag(_addr, _addr, _flag, _flag);\n    }\n\n    function withdrawFunds(address _addr)\n    external\n    {\n        onlyadmin();\n        _addr.send(this.balance);\n    }\n\n    // unnecessary?\n    //function() {}\n\n    function Oraclize() {\n        owner = msg.sender;\n    }\n\n    // Pesudo-modifiers\n\n    function onlyadmin()\n    private {\n        if (msg.sender != owner) throw;\n    }\n\n    function costs(string datasource, uint gaslimit)\n    private\n    returns (uint price) {\n        price = getPrice(datasource, gaslimit, msg.sender);\n\n        if (msg.value >= price){\n            uint diff = msg.value - price;\n            if (diff > 0) {\n                // added for correct query cost to be returned\n                if(!msg.sender.send(diff)) {\n                    throw;\n                }\n            }\n        } else throw;\n    }\n\n    mapping (address => byte) addr_proofType;\n    mapping (address => uint) addr_gasPrice;\n    uint public baseprice;\n    mapping (bytes32 => uint) price;\n    mapping (bytes32 => uint) price_multiplier;\n    bytes32[] dsources;\n\n    bytes32[] public randomDS_sessionPubKeysHash;\n\n    function randomDS_updateSessionPubKeysHash(bytes32[] _newSessionPubKeysHash)\n    external\n    {\n        onlyadmin();\n        randomDS_sessionPubKeysHash.length = 0;\n        for (uint i=0; i<_newSessionPubKeysHash.length; i++) randomDS_sessionPubKeysHash.push(_newSessionPubKeysHash[i]);\n    }\n\n    function randomDS_getSessionPubKeyHash()\n    external\n    constant\n    returns (bytes32) {\n        uint i = uint(sha3(reqc[msg.sender]))%randomDS_sessionPubKeysHash.length;\n        return randomDS_sessionPubKeysHash[i];\n    }\n\n    function setProofType(byte _proofType)\n    external\n    {\n        addr_proofType[msg.sender] = _proofType;\n    }\n\n    function setCustomGasPrice(uint _gasPrice)\n    external\n    {\n        addr_gasPrice[msg.sender] = _gasPrice;\n    }\n\n    function getPrice(string _datasource)\n    public\n    returns (uint _dsprice)\n    {\n        return getPrice(_datasource, msg.sender);\n    }\n\n    function getPrice(string _datasource, uint _gaslimit)\n    public\n    returns (uint _dsprice)\n    {\n        return getPrice(_datasource, _gaslimit, msg.sender);\n    }\n\n    function getPrice(string _datasource, address _addr)\n    private\n    returns (uint _dsprice)\n    {\n        return getPrice(_datasource, 200000, _addr);\n    }\n\n    function getPrice(string _datasource, uint _gaslimit, address _addr)\n    private\n    returns (uint _dsprice)\n    {\n        uint gasprice_ = addr_gasPrice[_addr];\n        if (\n                (offchainPayment[_addr])\n            ||(\n                (_gaslimit <= 200000)&&\n                (reqc[_addr] == 0)&&\n                (gasprice_ <= gasprice)&&\n                (tx.origin != cbAddress())\n            )\n        ) return 0;\n\n        if (gasprice_ == 0) gasprice_ = gasprice;\n        _dsprice = price[sha3(_datasource, addr_proofType[_addr])];\n        _dsprice += _gaslimit*gasprice_;\n        return _dsprice;\n    }\n\n    function getCodeSize(address _addr)\n    private\n    constant\n    returns(uint _size)\n    {\n        assembly {\n            _size := extcodesize(_addr)\n        }\n    }\n\n    function query(string _datasource, string _arg)\n    payable\n    external\n    returns (bytes32 _id)\n    {\n        return query1(0, _datasource, _arg, 200000);\n    }\n\n    function query1(string _datasource, string _arg)\n    payable\n    external\n    returns (bytes32 _id)\n    {\n        return query1(0, _datasource, _arg, 200000);\n    }\n\n    function query2(string _datasource, string _arg1, string _arg2)\n    payable\n    external\n    returns (bytes32 _id)\n    {\n        return query2(0, _datasource, _arg1, _arg2, 200000);\n    }\n\n    function queryN(string _datasource, bytes _args)\n    payable\n    external\n    returns (bytes32 _id)\n    {\n        return queryN(0, _datasource, _args, 200000);\n    }\n\n    function query(uint _timestamp, string _datasource, string _arg)\n    payable\n    external\n    returns (bytes32 _id)\n    {\n        return query1(_timestamp, _datasource, _arg, 200000);\n    }\n\n    function query1(uint _timestamp, string _datasource, string _arg)\n    payable\n    external\n    returns (bytes32 _id)\n    {\n        return query1(_timestamp, _datasource, _arg, 200000);\n    }\n\n    function query2(uint _timestamp, string _datasource, string _arg1, string _arg2)\n    payable\n    external\n    returns (bytes32 _id)\n    {\n        return query2(_timestamp, _datasource, _arg1, _arg2, 200000);\n    }\n\n    function queryN(uint _timestamp, string _datasource, bytes _args)\n    payable\n    external\n    returns (bytes32 _id)\n    {\n        return queryN(_timestamp, _datasource, _args, 200000);\n    }\n\n/*  Needless?\n    function query(uint _timestamp, string _datasource, string _arg, uint _gaslimit)\n    payable\n    external\n    returns (bytes32 _id)\n    {\n        return query1(_timestamp, _datasource, _arg, _gaslimit);\n    }\n*/\n    function query_withGasLimit(uint _timestamp, string _datasource, string _arg, uint _gaslimit)\n    payable\n    external\n    returns (bytes32 _id)\n    {\n        return query1(_timestamp, _datasource, _arg, _gaslimit);\n    }\n\n    function query1_withGasLimit(uint _timestamp, string _datasource, string _arg, uint _gaslimit)\n    payable\n    external\n    returns (bytes32 _id)\n    {\n        return query1(_timestamp, _datasource, _arg, _gaslimit);\n    }\n\n    function query2_withGasLimit(uint _timestamp, string _datasource, string _arg1, string _arg2, uint _gaslimit)\n    payable\n    external\n    returns (bytes32 _id)\n    {\n        return query2(_timestamp, _datasource, _arg1, _arg2, _gaslimit);\n    }\n\n    function queryN_withGasLimit(uint _timestamp, string _datasource, bytes _args, uint _gaslimit)\n    payable\n    external\n    returns (bytes32 _id)\n    {\n        return queryN(_timestamp, _datasource, _args, _gaslimit);\n    }\n\n    function query1(uint _timestamp, string _datasource, string _arg, uint _gaslimit)\n    payable\n    public\n    returns (bytes32 _id)\n    {\n        costs(_datasource, _gaslimit);\n    \tif ((_timestamp > now+3600*24*60)||(_gaslimit > block.gaslimit)) throw;\n\n        _id = sha3(this, msg.sender, reqc[msg.sender]);\n        reqc[msg.sender]++;\n        Log1(msg.sender, _id, _timestamp, _datasource, _arg, _gaslimit, addr_proofType[msg.sender], addr_gasPrice[msg.sender]);\n        return _id;\n    }\n\n    function query2(uint _timestamp, string _datasource, string _arg1, string _arg2, uint _gaslimit)\n    payable\n    public\n    returns (bytes32 _id)\n    {\n        costs(_datasource, _gaslimit);\n    \tif ((_timestamp > now+3600*24*60)||(_gaslimit > block.gaslimit)) throw;\n\n        _id = sha3(this, msg.sender, reqc[msg.sender]);\n        reqc[msg.sender]++;\n        Log2(msg.sender, _id, _timestamp, _datasource, _arg1, _arg2, _gaslimit, addr_proofType[msg.sender], addr_gasPrice[msg.sender]);\n        return _id;\n    }\n\n    function queryN(uint _timestamp, string _datasource, bytes _args, uint _gaslimit)\n    payable\n    public\n    returns (bytes32 _id)\n    {\n        costs(_datasource, _gaslimit);\n    \tif ((_timestamp > now+3600*24*60)||(_gaslimit > block.gaslimit)) throw;\n\n        _id = sha3(this, msg.sender, reqc[msg.sender]);\n        reqc[msg.sender]++;\n        LogN(msg.sender, _id, _timestamp, _datasource, _args, _gaslimit, addr_proofType[msg.sender], addr_gasPrice[msg.sender]);\n        return _id;\n    }\n\n    function query1_fnc(uint _timestamp, string _datasource, string _arg, function() external _fnc, uint _gaslimit)\n    payable\n    public\n    returns (bytes32 _id)\n    {\n        costs(_datasource, _gaslimit);\n        if ((_timestamp > now+3600*24*60)||(_gaslimit > block.gaslimit)||address(_fnc) != msg.sender) throw;\n\n        _id = sha3(this, msg.sender, reqc[msg.sender]);\n        reqc[msg.sender]++;\n        Log1_fnc(msg.sender, _id, _timestamp, _datasource, _arg, _fnc, _gaslimit, addr_proofType[msg.sender], addr_gasPrice[msg.sender]);\n        return _id;\n    }\n\n    function query2_fnc(uint _timestamp, string _datasource, string _arg1, string _arg2, function() external _fnc, uint _gaslimit)\n    payable\n    public\n    returns (bytes32 _id)\n    {\n        costs(_datasource, _gaslimit);\n        if ((_timestamp > now+3600*24*60)||(_gaslimit > block.gaslimit)||address(_fnc) != msg.sender) throw;\n\n        _id = sha3(this, msg.sender, reqc[msg.sender]);\n        reqc[msg.sender]++;\n        Log2_fnc(msg.sender, _id, _timestamp, _datasource, _arg1, _arg2, _fnc,  _gaslimit, addr_proofType[msg.sender], addr_gasPrice[msg.sender]);\n        return _id;\n    }\n\n    function queryN_fnc(uint _timestamp, string _datasource, bytes _args, function() external _fnc, uint _gaslimit)\n    payable\n    public\n    returns (bytes32 _id)\n    {\n        costs(_datasource, _gaslimit);\n        if ((_timestamp > now+3600*24*60)||(_gaslimit > block.gaslimit)||address(_fnc) != msg.sender) throw;\n\n        _id = sha3(this, msg.sender, reqc[msg.sender]);\n        reqc[msg.sender]++;\n        LogN_fnc(msg.sender, _id, _timestamp, _datasource, _args, _fnc, _gaslimit, addr_proofType[msg.sender], addr_gasPrice[msg.sender]);\n        return _id;\n    }\n}\n",
  "sourcePath": "/home/imm/datalogi/decompiler/source/tests/contracts/oraclize.sol",
  "compiler": {
    "name": "solc",
    "version": "0.4.18+commit.9cf6e910.Emscripten.clang"
  },
  "schemaVersion": "1.0.1",
  "updatedAt": "2018-06-05T15:25:58.666Z"
}