{
  "contractName": "PostTestedLoop",
  "abi": [
    {
      "constant": false,
      "inputs": [
        {
          "name": "ii",
          "type": "int256"
        }
      ],
      "name": "foo",
      "outputs": [
        {
          "name": "",
          "type": "int256"
        }
      ],
      "payable": false,
      "stateMutability": "nonpayable",
      "type": "function"
    }
  ],
  "bytecode": "0x6060604052341561000f57600080fd5b60c78061001d6000396000f300606060405260043610603e5763ffffffff7c01000000000000000000000000000000000000000000000000000000006000350416634c970b2f81146043575b600080fd5b3415604d57600080fd5b60566004356068565b60405190815260200160405180910390f35b6000815b6022831315607f57607a6096565b016083565b6033015b610123811215609057606c565b92915050565b6011905600a165627a7a7230582048c9ce23bcc1bc396936a9b43e1f20aade82177f7eb1621eff0cc4d7821432380029",
  "source": "contract PostTestedLoop {\n\n\tfunction f() internal returns (int) {\n\t\treturn 0x11;\n\t}\n\n\tfunction foo (int ii) external returns (int) {\n\t\tint i = ii;\n\t\tdo {\n\t\t\tif (ii > 0x22)\n\t\t\t\ti += f();\n\t\t\telse\n\t\t\t\ti += 0x33;\n\t\t} while (i < 0x123);\n\t\treturn i;\n\t}\n\n}\n",
  "sourcePath": "/home/imm/datalogi/decompiler/source/tests/contracts/posttestedloop.sol",
  "compiler": {
    "name": "solc",
    "version": "0.4.18+commit.9cf6e910.Emscripten.clang"
  },
  "schemaVersion": "1.0.1",
  "updatedAt": "2018-06-05T15:25:58.669Z"
}