{
  "contractName": "SmallTypes",
  "abi": [
    {
      "constant": false,
      "inputs": [
        {
          "name": "x",
          "type": "int256"
        }
      ],
      "name": "f",
      "outputs": [
        {
          "name": "",
          "type": "int8"
        }
      ],
      "payable": false,
      "stateMutability": "nonpayable",
      "type": "function"
    }
  ],
  "bytecode": "0x6060604052341561000f57600080fd5b60bc8061001d6000396000f300606060405260043610603e5763ffffffff7c01000000000000000000000000000000000000000000000000000000006000350416631c008df981146043575b600080fd5b3415604d57600080fd5b6056600435606f565b604051600091820b90910b815260200160405180910390f35b600080805b83811215608957600391909101906001016074565b50929150505600a165627a7a72305820f12654e98fcd42365257e2bbc5686e640587e1803aefd5f47107f5637992bb2f0029",
  "source": "contract SmallTypes {\n\n\tfunction f (int x) external returns (int8) {\n\t\tint8 result = 0;\n\t\tfor(int i = 0; i < x; i++) {\n\t\t\tresult += 3;\n\t\t}\n\t\treturn result;\n\t}\n\n}\n",
  "sourcePath": "/home/imm/datalogi/decompiler/source/tests/contracts/smalltypes.sol",
  "compiler": {
    "name": "solc",
    "version": "0.4.18+commit.9cf6e910.Emscripten.clang"
  },
  "schemaVersion": "1.0.1",
  "updatedAt": "2018-06-05T15:25:58.669Z"
}