{
  "contractName": "SmallTypes2",
  "abi": [
    {
      "constant": false,
      "inputs": [
        {
          "name": "x",
          "type": "int256"
        }
      ],
      "name": "g",
      "outputs": [
        {
          "name": "",
          "type": "int256"
        }
      ],
      "payable": false,
      "stateMutability": "nonpayable",
      "type": "function"
    }
  ],
  "bytecode": "0x6060604052341561000f57600080fd5b60e18061001d6000396000f300606060405260043610603e5763ffffffff7c01000000000000000000000000000000000000000000000000000000006000350416637877b80381146043575b600080fd5b3415604d57600080fd5b60566004356068565b60405190815260200160405180910390f35b6000806072836094565b90508060000b6003141560875760119150608e565b8060000b91505b50919050565b600080805b8381121560ae57600391909101906001016099565b50929150505600a165627a7a7230582066c0ca478f45b3461dcd905b72ef6c937b1159922caefccfedd667afcb3357eb0029",
  "source": "contract SmallTypes2 {\n\n\tfunction f (int x) internal returns (int8) {\n\t\tint8 result = 0;\n\t\tfor(int i = 0; i < x; i++) {\n\t\t\tresult += 3;\n\t\t}\n\t\treturn result;\n\t}\n\n\tfunction g(int x) external returns (int) {\n\t\tint8 r = f(x);\n\n\t\tif (r == 3)\n\t\t\treturn 0x11;\n\n\t\treturn r;\n\t}\n\n}\n",
  "sourcePath": "/home/imm/datalogi/decompiler/source/tests/contracts/smalltypes2.sol",
  "compiler": {
    "name": "solc",
    "version": "0.4.18+commit.9cf6e910.Emscripten.clang"
  },
  "schemaVersion": "1.0.1",
  "updatedAt": "2018-06-05T15:25:58.669Z"
}