{
  "contractName": "SmallExample",
  "abi": [
    {
      "constant": false,
      "inputs": [
        {
          "name": "x",
          "type": "uint256"
        }
      ],
      "name": "myfunc",
      "outputs": [
        {
          "name": "",
          "type": "uint256"
        }
      ],
      "payable": false,
      "stateMutability": "nonpayable",
      "type": "function"
    }
  ],
  "bytecode": "0x6060604052341561000f57600080fd5b60db8061001d6000396000f300606060405260043610603e5763ffffffff7c0100000000000000000000000000000000000000000000000000000000600035041663acc9d5d681146043575b600080fd5b3415604d57600080fd5b60566004356068565b60405190815260200160405180910390f35b6000808060028406600114156081576001820191506088565b6002820191505b5060005b8381101560a15760029190910190600101608c565b5060039004600501929150505600a165627a7a723058208463eb00770034296b7ef4643451d56dceb2323d346540025e4d14069220c6880029",
  "source": "contract SmallExample {\n\n\tfunction myfunc (uint x) external returns (uint) {\n\t\tuint result = 0;\n\n\t\tif ((x % 2) == 1) {\n\t\t\tresult += 1;\n\t\t}\n\t\telse {\n\t\t\tresult += 2;\n\t\t}\n\n\t\tfor (uint i = 0; i < x; i++) {\n\t\t\tresult += 2;\n\t\t}\n\n\t\treturn result/3 + 5;\n\t}\n\n}\n",
  "sourcePath": "/home/imm/datalogi/decompiler/source/tests/contracts/smallexample.sol",
  "compiler": {
    "name": "solc",
    "version": "0.4.18+commit.9cf6e910.Emscripten.clang"
  },
  "schemaVersion": "1.0.1",
  "updatedAt": "2018-06-05T15:25:58.669Z"
}