{
  "contractName": "String",
  "abi": [
    {
      "constant": false,
      "inputs": [
        {
          "name": "x",
          "type": "int256"
        }
      ],
      "name": "f",
      "outputs": [
        {
          "name": "",
          "type": "string"
        }
      ],
      "payable": false,
      "stateMutability": "nonpayable",
      "type": "function"
    },
    {
      "constant": false,
      "inputs": [
        {
          "name": "x",
          "type": "int256"
        },
        {
          "name": "s",
          "type": "string"
        },
        {
          "name": "r",
          "type": "string"
        }
      ],
      "name": "g",
      "outputs": [
        {
          "name": "",
          "type": "string"
        }
      ],
      "payable": false,
      "stateMutability": "nonpayable",
      "type": "function"
    }
  ],
  "bytecode": "0x6060604052341561000f57600080fd5b6104b58061001e6000396000f30060606040526004361061004b5763ffffffff7c01000000000000000000000000000000000000000000000000000000006000350416631c008df98114610050578063be161a2a146100dd575b600080fd5b341561005b57600080fd5b610066600435610175565b60405160208082528190810183818151815260200191508051906020019080838360005b838110156100a257808201518382015260200161008a565b50505050905090810190601f1680156100cf5780820380516001836020036101000a031916815260200191505b509250505060405180910390f35b34156100e857600080fd5b610066600480359060446024803590810190830135806020601f8201819004810201604051908101604052818152929190602084018383808284378201915050505050509190803590602001908201803590602001908080601f01602080910402602001604051908101604052818152929190602084018383808284375094965061027e95505050505050565b61017d610477565b81600114156101c15760408051908101604052600381527f6f6e65000000000000000000000000000000000000000000000000000000000060208201529050610279565b81600214156102055760408051908101604052600381527f74776f000000000000000000000000000000000000000000000000000000000060208201529050610279565b61027682604080519081016040908152600382527f666f6f000000000000000000000000000000000000000000000000000000000060208301528051908101604052600381527f62617a0000000000000000000000000000000000000000000000000000000000602082015261027e565b90505b919050565b610286610477565b6102908383610329565b1561031f57608060405190810160405280605081526020017f5b3a3a5d55524c3a3b2e5f2e3d2f2f2a2a2d2b74686973697341737472696e6781526020017f54686174436f6e7461494e734d616e79496e76616c69644f504330646573212181526020017f5b5d2f5c2829232325262f282d3c2d2c000000000000000000000000000000008152509050610322565b50815b9392505050565b6000610333610477565b61033b610477565b508390508260008151835114610354576000935061046e565b5060005b82518110156104695781818151811061036d57fe5b01602001517f010000000000000000000000000000000000000000000000000000000000000090047f0100000000000000000000000000000000000000000000000000000000000000027effffffffffffffffffffffffffffffffffffffffffffffffffffffffffffff19168382815181106103e557fe5b01602001517f010000000000000000000000000000000000000000000000000000000000000090047f0100000000000000000000000000000000000000000000000000000000000000027effffffffffffffffffffffffffffffffffffffffffffffffffffffffffffff1916141515610461576000935061046e565b600101610358565b600193505b50505092915050565b602060405190810160405260008152905600a165627a7a723058207eb9e27cac0042a79c07ef356ad532cb34297824c3eaee2198c069a8f19ae7a60029",
  "source": "contract String {\n\n\tfunction stringsEqual(string memory _a, string memory _b) internal returns (bool) {\n\t\tbytes memory a = bytes(_a);\n\t\tbytes memory b = bytes(_b);\n\t\tif (a.length != b.length)\n\t\t\treturn false;\n\t\tfor (uint i = 0; i < a.length; i ++)\n\t\t\tif (a[i] != b[i])\n\t\t\t\treturn false;\n\t\treturn true;\n\t}\n\n\tfunction g(int x, string s, string r) returns (string) {\n\t\tif (stringsEqual(s, r))\n\t\t\treturn \"[::]URL:;._.=//**-+thisisAstringThatContaINsManyInvalidOPC0des!![]/\\\\()##%&/(-<-,\";\n\t\treturn s;\n\t}\n\n\tfunction f(int x) external returns (string) {\n\t\tif (x == 1)\n\t\t\treturn \"one\";\n\t\telse if (x == 2)\n\t\t\treturn \"two\";\n\n\n\t\treturn g(x, \"foo\", \"baz\");\n\t}\n\n}\n\n",
  "sourcePath": "/home/imm/datalogi/decompiler/source/tests/contracts/string.sol",
  "compiler": {
    "name": "solc",
    "version": "0.4.18+commit.9cf6e910.Emscripten.clang"
  },
  "schemaVersion": "1.0.1",
  "updatedAt": "2018-06-05T15:25:58.669Z"
}