{
  "contractName": "Struct",
  "abi": [
    {
      "constant": false,
      "inputs": [],
      "name": "set_win",
      "outputs": [],
      "payable": false,
      "stateMutability": "nonpayable",
      "type": "function"
    },
    {
      "constant": false,
      "inputs": [
        {
          "name": "a",
          "type": "uint256"
        }
      ],
      "name": "set_age",
      "outputs": [],
      "payable": false,
      "stateMutability": "nonpayable",
      "type": "function"
    },
    {
      "constant": false,
      "inputs": [
        {
          "name": "addr",
          "type": "address"
        }
      ],
      "name": "set_addr",
      "outputs": [],
      "payable": false,
      "stateMutability": "nonpayable",
      "type": "function"
    },
    {
      "constant": false,
      "inputs": [],
      "name": "get_winner",
      "outputs": [
        {
          "components": [
            {
              "name": "age",
              "type": "uint256"
            },
            {
              "name": "addr",
              "type": "address"
            },
            {
              "name": "did_win",
              "type": "bool"
            },
            {
              "name": "is_old",
              "type": "bool"
            }
          ],
          "name": "",
          "type": "tuple"
        }
      ],
      "payable": false,
      "stateMutability": "nonpayable",
      "type": "function"
    }
  ],
  "bytecode": "0x6060604052341561000f57600080fd5b61024c8061001e6000396000f3006060604052600436106100615763ffffffff7c0100000000000000000000000000000000000000000000000000000000600035041663314d0375811461006657806367fdf9fa1461007b578063a2e3fcde14610091578063bb4c4f1c146100bd575b600080fd5b341561007157600080fd5b6100796100e2565b005b341561008657600080fd5b610079600435610123565b341561009c57600080fd5b61007973ffffffffffffffffffffffffffffffffffffffff60043516610128565b34156100c857600080fd5b6100d061016f565b60405190815260200160405180910390f35b600180547fffffffffffffffffffffff00ffffffffffffffffffffffffffffffffffffffff1674010000000000000000000000000000000000000000179055565b600055565b600180547fffffffffffffffffffffffff00000000000000000000000000000000000000001673ffffffffffffffffffffffffffffffffffffffff92909216919091179055565b6101776101f9565b6000608060405190810160409081528254825260019092015473ffffffffffffffffffffffffffffffffffffffff8116602083015260ff74010000000000000000000000000000000000000000820481161515938301939093527501000000000000000000000000000000000000000000900490911615156060820152905090565b608060405190810160409081526000808352602083018190529082018190526060820152905600a165627a7a723058200a67ea07156db3529453a0271a239b461feb8a40e92a63bffcc221c81a7501290029",
  "source": "contract Struct {\n\tstruct winner {\n\t\tuint age;\n\t\taddress addr;\n\t\tbool did_win;\n\t\tbool is_old;\n\t}\n\n\twinner w;\n\n\tfunction set_age(uint a) external {\n\t\tw.age = a;\n\t}\n\n\tfunction set_addr(address addr) external {\n\t\tw.addr = addr;\n\t}\n\n\tfunction set_win() external {\n\t\tw.did_win = true;\n\t}\n\n\tfunction get_winner() external returns (winner) {\n\t\treturn w;\n\t}\n\n}\n",
  "sourcePath": "/home/imm/datalogi/decompiler/source/tests/contracts/struct.sol",
  "compiler": {
    "name": "solc",
    "version": "0.4.18+commit.9cf6e910.Emscripten.clang"
  },
  "schemaVersion": "1.0.1",
  "updatedAt": "2018-06-05T15:25:58.670Z"
}