{
  "contractName": "TailCall",
  "abi": [
    {
      "constant": false,
      "inputs": [
        {
          "name": "x",
          "type": "uint256"
        }
      ],
      "name": "f",
      "outputs": [
        {
          "name": "",
          "type": "uint256"
        }
      ],
      "payable": false,
      "stateMutability": "nonpayable",
      "type": "function"
    },
    {
      "constant": false,
      "inputs": [
        {
          "name": "r",
          "type": "uint256"
        }
      ],
      "name": "h",
      "outputs": [
        {
          "name": "",
          "type": "uint256"
        }
      ],
      "payable": false,
      "stateMutability": "nonpayable",
      "type": "function"
    }
  ],
  "bytecode": "0x6060604052341561000f57600080fd5b60ce8061001d6000396000f30060606040526004361060485763ffffffff7c0100000000000000000000000000000000000000000000000000000000600035041663b3de648b8114604d578063cb97492a146072575b600080fd5b3415605757600080fd5b60606004356085565b60405190815260200160405180910390f35b3415607c57600080fd5b6060600435609c565b600060028202600101609581609c565b9392505050565b600301905600a165627a7a72305820467dddf1b807878a5dcc8121e406645a0857a3f93aa82d96a68d62328debe26a0029",
  "source": "contract TailCall {\n\tfunction h(uint r) returns (uint) {\n\t\treturn r+3;\n\t}\n\tfunction f (uint x) external returns (uint) {\n\t\tuint result = 1;\n\t\tresult += x*2;\n\t\treturn h(result);\n\t}\n}\n",
  "sourcePath": "/home/imm/datalogi/decompiler/source/tests/contracts/tailcall.sol",
  "compiler": {
    "name": "solc",
    "version": "0.4.18+commit.9cf6e910.Emscripten.clang"
  },
  "schemaVersion": "1.0.1",
  "updatedAt": "2018-06-05T15:25:58.670Z"
}