{
  "contractName": "TryToBreak",
  "abi": [
    {
      "constant": false,
      "inputs": [
        {
          "name": "x",
          "type": "uint256"
        }
      ],
      "name": "i",
      "outputs": [
        {
          "name": "",
          "type": "uint256"
        }
      ],
      "payable": false,
      "stateMutability": "nonpayable",
      "type": "function"
    },
    {
      "constant": false,
      "inputs": [
        {
          "name": "x",
          "type": "uint256"
        }
      ],
      "name": "k",
      "outputs": [
        {
          "name": "",
          "type": "uint256"
        }
      ],
      "payable": false,
      "stateMutability": "nonpayable",
      "type": "function"
    },
    {
      "constant": false,
      "inputs": [
        {
          "name": "x",
          "type": "uint256"
        }
      ],
      "name": "l",
      "outputs": [
        {
          "name": "",
          "type": "uint256"
        }
      ],
      "payable": false,
      "stateMutability": "nonpayable",
      "type": "function"
    },
    {
      "constant": false,
      "inputs": [],
      "name": "j",
      "outputs": [],
      "payable": false,
      "stateMutability": "nonpayable",
      "type": "function"
    },
    {
      "constant": false,
      "inputs": [
        {
          "name": "x",
          "type": "uint256"
        }
      ],
      "name": "h",
      "outputs": [
        {
          "name": "",
          "type": "uint256"
        }
      ],
      "payable": false,
      "stateMutability": "nonpayable",
      "type": "function"
    },
    {
      "constant": false,
      "inputs": [
        {
          "name": "x",
          "type": "uint256"
        }
      ],
      "name": "g",
      "outputs": [
        {
          "name": "",
          "type": "int256"
        }
      ],
      "payable": false,
      "stateMutability": "nonpayable",
      "type": "function"
    }
  ],
  "bytecode": "0x6060604052341561000f57600080fd5b6102558061001e6000396000f3006060604052600436106100775763ffffffff7c010000000000000000000000000000000000000000000000000000000060003504166329688a80811461007c578063443ddba2146100a457806354bb1361146100ba578063b582ec5f146100d0578063cb97492a146100e5578063e420264a146100fb575b600080fd5b341561008757600080fd5b610092600435610111565b60405190815260200160405180910390f35b34156100af57600080fd5b61009260043561014f565b34156100c557600080fd5b61009260043561016b565b34156100db57600080fd5b6100e36101bb565b005b34156100f057600080fd5b6100926004356101bd565b341561010657600080fd5b6100926004356101e2565b6000805b600a81111561012357610145565b826003141561013457600501610115565b600201600483141561014557610115565b8091505b50919050565b600081602a141561016257506001610166565b5060025b919050565b600060018281141561017f57600201610145565b826002141561019057600301610145565b82600314156101a157600501610145565b82600414156101b257600701610145565b600b0192915050565b565b6000805b808314610145576002908101908114156101da576101c1565b6002016101c1565b6000601682600114156101f857600c9150610149565b826002141561020a5760229150610149565b826003141561021b5750606f61021f565b6003015b60201901929150505600a165627a7a72305820e5a75463b98eec4220c406ee65813c39a0e26f950277d9f783b41c19932c46570029",
  "source": "// I'll try to cover as many weird edge cases here as possible\ncontract TryToBreak {\n\t\n\tfunction g (uint x) external returns (int) {\n\t\tint result = 22;\n\t\tdo {\n\t\t\tif (x == 1) {\n\t\t\t\treturn 12;\n\t\t\t}\n\t\t\telse if (x == 2) {\n\t\t\t\treturn 34;\n\t\t\t}\n\t\t\telse if (x == 3) {\n\t\t\t\tresult = 111;\n\t\t\t\tbreak;\n\t\t\t}\n\t\t\telse {\n\t\t\t\twhile (true) {\n\t\t\t\t\tresult += 1;\n\t\t\t\t\tbreak;\n\t\t\t\t}\n\t\t\t\tresult += 2;\n\t\t\t\tbreak;\n\t\t\t}\n\t\t\tresult += 1;\n\t\t} while (x == 42);\n\n\t\tresult -= 33;\n\t\treturn result;\n\t}\n\n\tfunction h (uint x) external returns (uint) {\n\t\tuint result = 0;\n\t\twhile (result != x) {\n\t\t\tresult++;\n\t\t\t++result;\n\t\t\tif (result == 2)\n\t\t\t\tcontinue;\n\t\t\tresult += 2;\n\t\t}\n\t\treturn result;\n\t}\n\n\tfunction i (uint x) external returns (uint) {\n\t\tuint result = 0;\n\t\twhile (true) {\n\t\t\tif (result > 10)\n\t\t\t\tbreak;\n\n\t\t\tif (x == 3) {\n\t\t\t\tresult += 5;\n\t\t\t\tcontinue;\n\t\t\t}\n\t\t\tresult += 2;\n\t\t\tif (x == 4) {\n\t\t\t\tcontinue;\n\t\t\t}\n\n\t\t\tbreak;\n\t\t}\n\t\treturn result;\n\t}\n\n\tfunction j () external {\n\t\twhile (true) {\n\t\t\tif (true)\n\t\t\t\tbreak;\n\t\t\telse\n\t\t\t\tbreak;\n\t\t\tbreak;\n\t\t\tbreak;\n\t\t\tbreak;\n\t\t}\n\t}\n\n\tfunction k(uint x) external returns (uint) {\n\t\twhile (true) {\n\t\t\tif (x == 42) {\n\t\t\t\treturn 1;\n\t\t\t} else {\n\t\t\t\treturn 2;\n\t\t\t}\n\t\t}\n\t}\n\n\tfunction l (uint x) external returns (uint) {\n\t\tuint result = 0;\n\t\twhile (true) {\n\t\t\twhile (true) {\n\t\t\t\tresult += 1;\n\t\t\t\tbreak;\n\t\t\t}\n\n\t\t\tif (x == 1) {\n\t\t\t\tresult += 2;\n\t\t\t\tbreak;\n\t\t\t}\n\t\t\tif (x == 2) {\n\t\t\t\tresult += 3;\n\t\t\t\tbreak;\n\t\t\t}\n\t\t\tif (x == 3) {\n\t\t\t\tresult += 5;\n\t\t\t\tbreak;\n\t\t\t}\n\t\t\tif (x == 4) {\n\t\t\t\tresult += 7;\n\t\t\t\tbreak;\n\t\t\t}\n\t\t\tresult += 11;\n\t\t\tbreak;\n\t\t}\n\t\treturn result;\n\t}\n\n}\n",
  "sourcePath": "/home/imm/datalogi/decompiler/source/tests/contracts/trytobreak.sol",
  "compiler": {
    "name": "solc",
    "version": "0.4.18+commit.9cf6e910.Emscripten.clang"
  },
  "schemaVersion": "1.0.1",
  "updatedAt": "2018-06-05T15:25:58.670Z"
}